:100000000C945D000C94D0010C947A000C947A004E
:100010000C947A000C947A000C947A000C947A0078
:100020000C947A000C947A000C947A000C947A0068
:100030000C947A000C947A000C947A000C947A0058
:100040000C947A000C947A000C947A000C947A0048
:100050000C947A000C947A000C947A000C947A0038
:100060000C947A000C947A00040309041C037700B2
:10007000770077002E006600690073006300680057
:100080006C002E00640065000E0355005300420012
:1000900061007300700012011001FF000008C0161B
:1000A000DC050401010200010902120001010080C7
:1000B0001909040000000000000011241FBECFEF4A
:1000C000D8E0DEBFCDBF11E0A0E0B1E0E0E1F3E1B8
:1000D00002C005900D92A230B107D9F711E0A2E05D
:1000E000B1E001C01D92AA34B107E1F70E94FA0500
:1000F0000C9486090C940000E9E6F0E080818360AE
:100100008083E89A08951F93CF93DF93609128012D
:10011000635067FD13C080912501CCE0D0E0C81B7F
:10012000D109C45DDE4F809124018D3209F463C092
:100130008091020187FD85C0109228018091000105
:1001400084FF4BC0609101016F3F09F446C06930E4
:1001500070F16850609301018091180198E8892737
:100160008093180168E08091020187FD8EC0209184
:1001700026013091270186FF6FC0A9E1B1E080E040
:1001800090E0F901E80FF91FE491ED9301966817EB
:10019000C1F76150862F90E06F5F0196820F931F29
:1001A0009093270180932601162F1C5F0BC010929D
:1001B00001018091180198E889278093180166232E
:1001C00091F614E089E191E00E94CC011C3019F015
:1001D0008FEF809301011093000194E189B18C703D
:1001E00031F49150D9F71092290110922301DF9137
:1001F000CF911F910895683009F09ECF83EC8093D2
:1002000018018AE5809300011092020188818076AE
:1002100061F59A81109221018981882309F046C0F5
:100220001092220122E081E291E0909327018093D5
:1002300026018F81882319F49E81921718F1922F3D
:1002400021C0CE010E940E068F3F61F1882309F480
:1002500073CF1092010170CFD901962FE9E1F1E03F
:100260008D9181939150E1F794CFCE010E94610767
:10027000282F8F3FF1F6888187FD26C09FEF80E809
:10028000809302019093010157CF89E191E00E9490
:10029000EA06682F893008F453C08FEF809301017C
:1002A0001EE199CF8EE18093000146CF853071F039
:1002B000863091F0883031F1893061F18A3031F146
:1002C00020E081E291E0B1CF9E81D9CF90932901C6
:1002D00020E081E291E0A9CF8B81813049F1823029
:1002E000F9F0833029F020E080E480930201A1CF6F
:1002F000992349F588E690E09093270180932601A1
:1003000024E0F2CF21E08BE291E08FCF21E081E287
:1003100091E08BCF90932B0120E081E291E085CF9B
:1003200088EA90E0909327018093260122E1DCCFB8
:1003300086E990E0909327018093260122E1D4CFB3
:10034000182F1C5F3FCF913051F0923061F688E852
:1003500090E090932701809326012EE0C5CF8CE694
:1003600090E090932701809326012CE1BDCFA82F28
:10037000B92F80E090E041E050EA609530E009C09C
:100380002D9182279795879510F084279527305EC9
:10039000C8F36F5FA8F30895EADF8D939D930895E6
:1003A000CF93CFB7CF93C3954B9BE9F74B9B09C036
:1003B0004B9B07C04B9B05C04B9B03C04B9B01C095
:1003C000A1C0DF93C0912501DD27C45DDE4F4B9BAB
:1003D00002C0DF91EBCF2F930F931F9309B12FEF43
:1003E00003FB20F94F933F9319B14FEF012703FB14
:1003F00021F93BE031C04E7F012F19B1216028C0A7
:10040000102F4D7F2260000009B129C04B7F24606E
:10041000012F000019B12BC019B1477F28602AC0F5
:100420004F7E09B120612CC04F7D19B120622FC0D1
:100430004F7B09B1206432C0422709B149934FEF85
:100440000000102713FB20F919B11C70C9F1297F96
:1004500091F2012703FB21F909B1237F89F2315081
:1004600058F1102713FB22F919B1277E79F20127E1
:1004700003FB23F92F7C81F209B1102713FB24F928
:100480002F7971F200C019B1012703FB25F92F73F1
:1004900059F200C009B1102713FB26F9223040F2AF
:1004A00000C019B1012703FB27F9243028F64F7744
:1004B000206819B10000F9CF11E01CBB002717C05C
:1004C0003B503195C31BD04011E01CBB0881033C5D
:1004D000E9F00B34D9F0209123011981110F121387
:1004E000EDCF093641F10D3211F0013E39F700939D
:1004F0002A013F914F911F910F912F91DF91CCB322
:10050000C0FD51CFCF91CFBFCF91189520912A0137
:10051000222379F310912801112311F5343012F1BF
:100520003093280120932401109125013BE0311BD9
:100530003093250117C00091280101308CF40AE5A1
:100540003091000134FD10C000930001C8E1D1E0FA
:100550000FC02795A8F45150A9F4220F0000F9CF3D
:100560004AE503C042ED01C0432FC4E1D0E032E0D0
:100570001AB11C605B9A1AB90BB120E41CE05F93BE
:10058000012756E00BB9279520F4515021F4220F92
:10059000F9CF012756E000003B5A0BB9D0F227955E
:1005A00028F4515029F4220F0000F9CF012756E01A
:1005B00027950BB920F4515021F4220FF9CF0127D0
:1005C00056E0299133230BB921F6037F10912901BD
:1005D000110FC651D0400BB911F01093230111E057
:1005E0001CBB08601AB1137F402F437F5F9100C08E
:1005F00000C00BB91AB94BB97CCF809145018CBDB5
:10060000809142018DBD0895282F8823A1F0883064
:1006100008F042C086EA93E090934401809343013E
:10062000243019F12530B8F0263099F1263068F1E0
:100630002730F9F0089587EC93E09093440180937C
:10064000430181E08093470182E58093450181E089
:100650008093420108952230A1F0233070F42130BC
:1006600049F780EC80934701089588E18093470122
:10067000089583E080934701089580E380934701C4
:10068000089580E68093470108958CE080934701A8
:10069000089520934701089587EC93E090934401D7
:1006A000809343011092420181E0809347012930F9
:1006B00041F02A3050F4283039F683E58093450123
:1006C000089582E58093450108952B3029F02C3060
:1006D00009F0BACF8093420181E5809345010895E6
:1006E00026B59091470186B5821B8917E0F30895DE
:1006F00084B18C6284B92A982D9896B520914701CF
:1007000086B5891B8217E0F32A9A96B586B5891BB0
:100710008217E0F32A988091430190914401875C0D
:10072000934019F0109246010895809145018CBDC7
:10073000809142018DBD10924601089584B1837D60
:1007400084B985B1837D85B91CBC0895582F20914B
:10075000470140E030E057FD16C02B98440F1C992C
:100760004F5F2D9A96B586B5891B8217E0F32D98B9
:1007700096B586B5891B8217E0F33F5F383029F0C4
:10078000550F57FFEACF2B9AE9CF842F08958EBDDE
:100790000DB407FEFDCF8EB508950F931F930FE1A3
:1007A000E0914301F09144018CEA0995E091430105
:1007B000F091440183E50995E0914301F0914401F2
:1007C00080E00995182FE0914301F091440180E009
:1007D00009951335C9F11CBC26B59091470186B522
:1007E000821B8917E0F32A9A26B586B5821B8917E2
:1007F000E0F32A9826B586B5821B8917E0F3053108
:1008000060F0E0914301F091440183E0E73CF80798
:1008100079F00023A9F00150C7CF85E00E940403BE
:10082000E0914301F091440183E0E73CF80789F748
:10083000809145018CBD809142018DBD002359F707
:1008400081E01F910F91089580E01F910F9108950D
:100850009B01AC0181E156954795379527958A957F
:10086000D1F7809146018217D9F020934601E0919B
:100870004301F09144018DE40995E0914301F09129
:10088000440180E00995E0914301F0914401809199
:1008900046010995E0914301F091440180E00995FA
:1008A0000895EF92FF920F931F937B018C010E949A
:1008B00028048E2D8170880F880F880FE0914301E6
:1008C000F091440180620995D801C70129E0B695ED
:1008D000A795979587952A95D1F7E0914301F091D7
:1008E0004401099516950795F794E794E091430123
:1008F000F09144018E2D0995E0914301F09144015E
:1009000080E009951F910F91FF90EF9008950F934C
:100910001F938C01E0914301F091440180EA099515
:10092000E0914301F0914401812F0995E091430149
:10093000F0914401802F0995E0914301F091440129
:1009400080E009951F910F910895FF920F931F93D7
:100950008C01F62EE0914301F091440180EC099561
:10096000E0914301F0914401812F0995E091430109
:10097000F0914401802F0995E0914301F0914401E9
:100980008F2D09958EE10E94840580E01F910F91C3
:10099000FF900895CF92DF92EF92FF920F931F93F3
:1009A0006B017C01142F0E942804E0914301F09117
:1009B00044018CE40995D701C60149E0B695A79595
:1009C000979587954A95D1F7E0914301F0914401BD
:1009D0000995D701C601B695A79597958795E0919A
:1009E0004301F09144010995E0914301F0914401E4
:1009F00080E009951F3FF9F016B50EE1C701B60179
:100A00000E9451048F3F79F486B5811B8D33B0F37A
:100A100016B5015099F781E01F910F91FF90EF906B
:100A2000DF90CF90089580E01F910F91FF90EF909D
:100A3000DF90CF9008958FE00E94840580E01F91A1
:100A40000F91FF90EF90DF90CF900895CF92DF92BB
:100A5000EF92FF920F931F936B017C01042F122FD3
:100A60000E9428048C2D8170880F880F880FE091D8
:100A70004301F091440180640995D701C60169E002
:100A8000B695A795979587956A95D1F7E09143011B
:100A9000F09144010995D701C601B695A7959795A0
:100AA0008795E0914301F09144010995E09143015C
:100AB000F0914401802F09951123C9F00F37F9F007
:100AC00016B50EE1C701B6010E9451048F3779F4C3
:100AD00086B5811B8D33B0F316B5015099F781E0CF
:100AE0001F910F91FF90EF90DF90CF90089580E0DD
:100AF0001F910F91FF90EF90DF90CF9008958FE0BE
:100B00000E94840580E0F4CF382F882349F020E04C
:100B100096B586B5891B8C33E0F32F5F2317C0F39E
:100B20000895259A23982B9A50E217D05A95E9F701
:100B30000895AC0188E605D0842F03D089E601D062
:100B4000852F0FD028E030E0382780FB869506D02F
:100B50002A95D1F730FB02D000D0689423982B9AC5
:100B600016F02B98239AE0914801F09149013197B2
:100B7000F0F72D9AE3B1E3FBE0914801F0914901D0
:100B80003197F0F72D98089520ECE7DF46F42A9589
:100B9000E1F780E02AE1E5DF2A95E9F7DECF28E0FA
:100BA00030E0DBDF869587F938272A95D1F7D5DF46
:100BB00027F9322772F3D1DFD0CFDB01742FB9DFF1
:100BC00084E2BFDFE1DF8D937A95D1F70895DB01F1
:100BD000742FAFDF83EFB5DF8DE1B3DF84E6B1DFE4
:100BE0008D91AFDF82E7ADDFCFDF8078D9F77A95DF
:100BF00089F708951BB815B88BEF8AB98FEF8AB9BA
:100C00001AB893E097B98EEF88B9549A5C9895BD5D
:100C10000E947C0078940E948300FDCFFF920F9386
:100C20001F93CF93DF93082F792FF62E4091030166
:100C3000413069F0443059F0463009F497C01FEF55
:100C4000812FDF91CF911F910F91FF900895FF2089
:100C500009F4B8C0802F972F9C01E90110E055C01E
:100C60008091140190911501892B09F05BC060916E
:100C7000100170911101809112019091130148812E
:100C800021E00E94260580910401909105010197C1
:100C90009093050180930401892BE1F410920301E4
:100CA0008091160181FF3CC08091170190E0209156
:100CB0001401309115018217930791F16091100191
:100CC00070911101809112019091130148810E944D
:100CD000CA0411E08091100190911101A0911201BC
:100CE000B09113010196A11DB11D80931001909345
:100CF0001101A0931201B093130121969E01201BB4
:100D00002F1508F09DCF40910301413009F4A8CF81
:100D1000809110019091110168810E94A504B3CFC8
:100D200011E0D8CF609110017091110180911201F2
:100D300090911301488120E00E94260580911701BF
:100D4000815080931701882309F09DCF6091100195
:100D500070911101809112019091130148810E94BC
:100D6000CA0480911401809317018DCF80911001E6
:100D700090911101602F4F2D0E94E7058091100185
:100D800090911101A0911201B09113018F0D911D4D
:100D9000A11DB11D8093100190931101A093120128
:100DA000B093130180910401909105018F1991096D
:100DB0009093050180930401892B21F41092030183
:100DC00011E03ECF10E0812FDF91CF911F910F9165
:100DD000FF9008950F931F93CF93DF93082F792FE0
:100DE000162F40910301842F8250823050F04530FD
:100DF00009F44AC01FEF812FDF91CF911F910F910E
:100E00000895453009F440C06623B1F1802F9C015C
:100E1000E90121C080911001909111010E94870485
:100E200088838091100190911101A0911201B091DD
:100E300013010196A11DB11D809310019093110122
:100E4000A0931201B093130121969E01201B21173C
:100E500080F4409103014230E9F6609110017091F5
:100E6000110180911201909113010E945104888315
:100E7000D8CF183008F0BFCF10920301812FDF9137
:100E8000CF911F910F9108958091100190911101C0
:100E9000602F412F0E94DD0580911001909111017A
:100EA000A0911201B0911301810F911DA11DB11DDF
:100EB0008093100190931101A0931201B09313013C
:100EC0009ACF0F931F93CF93DF938C01DC01119680
:100ED0008C91813009F44EC0823009F4EAC083302D
:100EE00009F457C0843009F4B8C0873009F489C0C8
:100EF000853009F45EC1863009F414C1883009F4E4
:100F0000DFC0893009F45DC18A3009F46EC18B30CD
:100F100009F4A1C18C3009F4BFC18D3009F4D8C1E6
:100F20008E3009F4DDC18F3009F06AC1F801938178
:100F300080E0228130E0822B932BAA2797FDA09599
:100F4000BA2F8093100190931101A0931201B093D6
:100F50001301978180E0268130E0822B932B9093C0
:100F600005018093040185E0809303018FEFC8E0C1
:100F7000D1E03AC0329B41C0809106010E94040337
:100F80001092070141980E94780380E0C8E0D1E008
:100F90002BC0E0914301F0914401D80112968C914D
:100FA0000995C8E0D1E080930801E0914301F091F8
:100FB0004401D80113968C91099580930901E09121
:100FC0004301F0914401D80114968C9109958093C6
:100FD0000A01E0914301F0914401D80115968C91EA
:100FE000099580930B0184E0D0932701C0932601DB
:100FF000DF91CF911F910F91089585E00E94040326
:10100000BFCF80910701882399F4F801938180E094
:10101000228130E0822B932BAA2797FDA095BA2F2F
:101020008093100190931101A0931201B0931301CA
:10103000D80117969C91179780E016962C9130E076
:10104000822B932B909305018093040183E080937E
:1010500003018FEFC8E0D1E0C7CF8091070188235B
:1010600099F4F801938180E0228130E0822B932B68
:10107000AA2797FDA095BA2F809310019093110194
:10108000A0931201B0931301D80117969C91179762
:1010900080E016962C9130E0822B932B90930501E3
:1010A0008093040182E0809303018FEFC8E0D1E0D8
:1010B0009BCF0E949E03419A80E0C8E0D1E094CF8C
:1010C000809107018823B1F4D80113969C9113975E
:1010D00080E012962C9130E0822B932BAA2797FD6B
:1010E000A095BA2F8093100190931101A093120143
:1010F000B093130110921501109214011092160171
:10110000F801978180E0268130E0822B932B909329
:1011100005018093040184E0809303018FEFC8E010
:10112000D1E062CF80910701882399F4F80193817F
:1011300080E0228130E0822B932BAA2797FDA09597
:10114000BA2F8093100190931101A0931201B093D4
:101150001301D80114968C91149715969C91292F00
:101160002F7020931601492F50E0407F5070429518
:101170005295507F5427407F5427480F511D50935C
:1011800015014093140120FF02C040931701F8019C
:10119000978180E0268130E0822B932B909305018C
:1011A0008093040181E0809303018FEFC8E0D1E0D8
:1011B0001BCF0E94CD03C8E0D1E08093080181E0FD
:1011C00013CF81E080930701F80182819381A4818C
:1011D000B5818093100190931101A0931201B093F7
:1011E000130180E0C8E0D1E0FFCED80112968C91C7
:1011F00080930601C8E0D1E01092080181E0F4CEAE
:10120000803109F043C0D80113969C91139780E078
:1012100012962C9130E0822B932BAA2797FDA09554
:10122000BA2F8093100190931101A0931201B093F3
:101230001301F801978180E0268130E0822B932B07
:10124000909305018093040186E0809303018FEF62
:10125000C8E0D1E0C9CEF801938180E0228130E07E
:10126000822B932B90934901809348012A9A229ACA
:1012700083E00E9484052A98419880E10E948405B9
:101280000E94910580E0C8E0D1E0AECE8F3789F1B1
:1012900080E0C8E0D1E0A8CE80EC0E94A10580E00B
:1012A0000E94A1058AE00E9484052A9A85E00E9496
:1012B00084052A9885E00E94840584B1837D84B9E1
:1012C00085B1837D85B9419A80E0C8E0D1E08CCEBC
:1012D0000E94C405C8E0D1E08093080181E084CE7B
:1012E000D80112968C910E94A10580E0C8E0D1E05F
:1012F0007BCEC8E0D1E081E0809308011092090123
:1013000010920A0110920B0184E06ECEF894FFCF88
:021310005AFF82
:00000001FF
