:100000000C9434000C9451000C9451000C94510049
:100010000C9451000C9405040C9451000C94510064
:100020000C9451000C9451000C9451000C9451000C
:100030000C9451000C9446040C9451000C94510003
:100040000C9451000C9451000C9451000C945100EC
:100050000C9451000C9451000C9451000C945100DC
:100060000C9451000C94510011241FBECFEFD8E026
:10007000DEBFCDBF11E0A0E0B1E0E0E0F9E002C0FA
:1000800005900D92A431B107D9F711E0A4E1B1E0D8
:1000900001C01D92A134B107E1F70E9453000C94F6
:1000A0007E040C9400001F93CF93DF930E94FE0305
:1000B0007894CCE2D1E00E94EB03882371F010E049
:1000C00006C0812F0E94D2030E9429011F5F0E9457
:1000D000FB031817B0F30E94DB03CE010197F1F781
:1000E000EACF109214011092150181E0809316015D
:1000F00080E090E0FC01EC5EFE4F138201968032BE
:100100009105C1F710923701E8E3F1E0119281E027
:10011000E034F807D9F71082089510928000109209
:1001200081001092820010926F008FEF86BBE8E68C
:10013000F0E0808184608083EDE6F0E08081806281
:100140008083DA9A789408958FEF86BBEFE6F0E02B
:10015000108288E09FEC909385008093840081E07A
:100160008093810086BB8083089510926F00109267
:10017000810010928500109284000895569A5E9A2C
:1001800055985D9A519A599808955E9A08955E9887
:100190000895813011F45E9A08955E98089589B1AA
:1001A00090E025E0969587952A95E1F7817008956E
:1001B0009C01109285001092840081E08093810060
:1001C000809184009091850082179307C8F3109264
:1001D0008100089520910E0130910F011092850049
:1001E0001092840081E0809381008091840090913E
:1001F000850082179307C8F310928100089520911B
:10020000100130911101109285001092840081E05C
:1002100080938100809184009091850082179307DC
:10022000C8F31092810008952091120130911301BA
:10023000109285001092840081E08093810080916B
:1002400084009091850082179307C8F31092810073
:100250000895DF93CF93CDB7DEB72A970FB6F89402
:10026000DEBF0FBECDBFFE0131969AE0DF011D92C9
:100270009A95E9F791E09A87FE01329620E030E006
:10028000482F50E061E0CA01022E02C09595879583
:100290000A94E2F780FF02C0608301C010822F5FE2
:1002A0003F4F31962830310571F76FB7F8942091A0
:1002B0000E0130910F01FE01319671E0AE01455FF4
:1002C0005F4F8081813011F45E9A01C05E98109278
:1002D0008500109284007093810080918400909139
:1002E000850082179307C8F3109281003196E417B6
:1002F000F50739F76FBF2A960FB6F894DEBF0FBE29
:10030000CDBFCF91DF9108954D9B54C082E0809383
:1003100014014DC08091840090918500821793074D
:10032000C8F310928100599A599869B1409110010F
:100330005091110130E020E071E0109285001092A0
:1003400084007093810080918400909185008417CF
:100350009507C8F310928100599A59984D993068C1
:10036000273009F036952F5F283039F71092850035
:100370001092840081E080938100809184009091AC
:10038000850084179507C8F310928100599A5998EF
:1003900089B165FD07C085FF05C030931501109236
:1003A000140103C081E080931401599A59988091F7
:1003B00015010895209112013091130110928500CA
:1003C0001092840081E080938100A4CF8091150178
:1003D0000895109215010895809315010895BF9214
:1003E000CF92DF92EF92FF920F931F93CF93DF9301
:1003F0007B018C018FEFE816F1040105110509F06E
:1004000030F4C8E0D0E052E0C52ED12C14C080E01A
:10041000E81680E0F80681E0080780E0180730F071
:10042000C0E2D0E048E0C42ED12C05C0C0E1D0E04D
:1004300034E0C32ED12C80E30E94290188E70E947A
:100440002901BB2417C02497D801C7010C2E04C072
:10045000B695A795979587950A94D2F790E08F70F7
:1004600090708A30910510F0C79601C0C0960E9426
:100470002901B3948B2D90E08C159D0520F3DF911D
:10048000CF911F910F91FF90EF90DF90CF90BF9091
:100490000895AF92BF92CF92DF92EF92FF920F93A7
:1004A0001F93CF93DF937B018C016F3F7105810513
:1004B000910509F018F4E7E0DE2E0DC0603030E061
:1004C000730731E0830730E0930718F07FE1D72E00
:1004D00002C06FE0D62E80E30E94290182E60E94CE
:1004E0002901C0E0D0E0CD2CDD2456010894A11CE8
:1004F000B11CC6018C1B9D0BA801970104C0569529
:100500004795379527958A95D2F7DA01C901817009
:100510009070892B11F081E301C080E30E942901D2
:100520002196CA15DB0529F7DF91CF911F910F9115
:10053000FF90EF90DF90CF90BF90AF9008958DE047
:100540000E9429018AE00E942901089580E20E9408
:10055000290108958CE20E94290108951F93CF93E9
:10056000DF93EC0110E003C00E9429011F5FFE0130
:10057000E10FF11D80818823B9F7DF91CF911F91A1
:1005800008950E94AE020E949F0208950E94AE024A
:100590000E94A60208950E94AE020E94AA02089537
:1005A000BF92CF92DF92EF92FF920F931F936B0156
:1005B0007C01611571058105910531F410923801B6
:1005C00081E08093400123C0BB240B2D10E00C5E22
:1005D0001E4FC701B6012AE030E040E050E00E9423
:1005E0005C04F80164A3C701B6012AE030E040E0F2
:1005F00050E00E945C04C901DA016C017D01B394F2
:10060000C114D104E104F10401F7B09240011F913B
:100610000F91FF90EF90DF90CF90BF9008951F93C0
:100620001091400109C01150E12FF0E0EC5EFE4F47
:1006300084A1805D0E9429011123A9F71F910895CB
:10064000EF92FF920F931F937B018C0197FF0BC0DA
:100650008DE20E94290110950095F094E094E11C30
:10066000F11C011D111DC801B7010E94D0020E949A
:100670000F031F910F91FF90EF9008950E942003A8
:100680000E949F0208950E9420030E94A6020895DE
:100690000E94200380E091E00E94AE0208950E9433
:1006A000EF010E949F0208950E94EF010E94A6029E
:1006B00008950E94EF0180E091E00E94AE0208954B
:1006C000EF92FF920F931F937A018B010E94AE026B
:1006D0000E94A602C801B7010E943E031F910F911C
:1006E000FF90EF900895EF92FF920F931F937A017E
:1006F0008B010E94AE020E94A602C801B7010E94AF
:1007000043031F910F91FF90EF900895EF92FF9296
:100710000F931F937A018B010E94AE020E94A602E2
:10072000C801B7010E9448031F910F91FF90EF90FD
:100730000895EF92FF920F931F937A018B010E940D
:10074000AE020E94A602C801B7010E944F031F918A
:100750000F91FF90EF900895EF92FF920F931F93E8
:100760007A018B010E94AE020E94A602C801B70165
:100770000E9454031F910F91FF90EF900895EF9204
:10078000FF920F931F937A018B010E94AE020E9489
:10079000A602C801B7010E9459031F910F91FF9053
:1007A000EF900895E4E1F1E0E80FF11D83810895F1
:1007B00080913701089580E090E0FC01EC5EFE4FEF
:1007C0001382019680329105C1F710923701089586
:1007D00080911601089580911601882311F090E010
:1007E00008C08091370190E0882309F491E081E00E
:1007F0009827892F08958091370108950E947100EC
:100800000E948D000E94BE0008951F920F920FB6A5
:100810000F9211242F933F934F935F936F937F9386
:100820008F939F93AF93BF93EF93FF9381E0809358
:1008300016010E948401982F809114018823A9F445
:10084000E0913701F0E0EC5EFE4F93838091370139
:100850008F5F8093370180913701813210F01092C1
:1008600037010E94A400599A5998FF91EF91BF91C6
:10087000AF919F918F917F916F915F914F913F9138
:100880002F910F900FBE0F901F9018951F920F92EF
:100890000FB60F92112410926F00109281001092E7
:1008A000850010928400599A5998109216010F9061
:1008B0000FBE0F901F901895A1E21A2EAA1BBB1B0A
:1008C000FD010DC0AA1FBB1FEE1FFF1FA217B3071C
:1008D000E407F50720F0A21BB30BE40BF50B661F32
:1008E000771F881F991F1A9469F7609570958095F6
:1008F00090959B01AC01BD01CF010895F894FFCF05
:100900002C00CE049C044E024E023A02E60018016E
:040910001801460084
:00000001FF
