:100000000C9434000C9451000C9451000C94510049
:100010000C94C4030C9451000C9451000C945100A6
:100020000C9451000C9451000C9451000C9451000C
:100030000C9451000C9415040C9451000C94510034
:100040000C9451000C9451000C9451000C945100EC
:100050000C9451000C9451000C9451000C945100DC
:100060000C9451000C94510011241FBECFEFD8E026
:10007000DEBFCDBF11E0A0E0B1E0E8EAF8E002C0E9
:1000800005900D92A230B107D9F711E0A2E0B1E0DE
:1000900001C01D92A533B107E1F70E9453000C94F3
:1000A00052040C9400001F93CF93DF930E94BD0372
:1000B000549A5C987894CCE2D1E00E94BA038823E9
:1000C00091F40E94AA03882371F010E006C0812FEA
:1000D0000E94A4030E94E0001F5F0E94AA03181759
:1000E000B0F30E94AD03CE010197F1F7E6CF109275
:1000F00002011092030181E08093040180E090E00E
:10010000FC01EE5FFE4F1382019680329105C1F72C
:1001100010922501E6E2F1E0119281E0EE32F8075B
:10012000D9F71082128211821482138215821682EC
:100130000895109280001092810010928200109217
:100140006F0081E086BBE8E6F0E08081826080831A
:10015000ECE6F0E0808180618083D99A78940895FC
:100160003D9A459A3C98449A3B9A43980895459AFB
:10017000089545980895813011F4459A0895459859
:10018000089586B190E024E0969587952A95E1F749
:10019000817008959C01109285001092840081E086
:1001A000809381008091840090918500821793074D
:1001B000C8F3109281001092850010928400089577
:1001C000DF93CF93CDB7DEB72A970FB6F894DEBF93
:1001D0000FBECDBFFE0131969AE0DF011D929A95C8
:1001E000E9F791E09A87FE01329620E030E0482F4F
:1001F00050E061E0CA01022E02C0959587950A94ED
:10020000E2F780FF02C0608301C010822F5F3F4F82
:1002100031962830310571F74FB7F894FE013196C9
:1002200051E09E01255F3F4F8081813011F4459A56
:1002300001C045981092850010928400509381006F
:1002400080918400909185008E5C9440C8F3109258
:10025000810010928500109284003196E217F30716
:1002600019F74FBF2A960FB6F894DEBF0FBECDBF69
:10027000CF91DF910895349B67C083E080930201A2
:1002800060C080918400909185008E549240C8F3A4
:1002900010928100109285001092840030E040E0BE
:1002A00020E072E064E051E0222381F4349B54C0EA
:1002B00010928500109284005093810080918400F8
:1002C000909185008C599440C8F31BC0822F8150B7
:1002D0008830F0F434993068439A862F8A95F1F784
:1002E0004398283009F036951092850010928400CA
:1002F0005093810080918400909185008C599440A6
:10030000C8F310928100109285001092840015C0ED
:10031000293099F4349B27C0439A862F8A95F1F7A8
:1003200043984170413029F4309303011092020147
:1003300004C010920301509302012F5F2A3009F08C
:10034000B3CF80910301089510928500109284002C
:1003500081E08093810095CF439A862F8A95F1F7AB
:10036000439841E0A5CF1092030170930201E5CFBD
:100370008091030108951092030108958093030171
:100380000895BF92CF92DF92EF92FF920F931F9347
:10039000CF93DF937B018C018FEFE816F104010509
:1003A000110509F030F4C8E0D0E052E0C52ED12CA0
:1003B00014C080E0E81680E0F80681E0080780E0DD
:1003C000180730F0C0E2D0E048E0C42ED12C05C0C0
:1003D000C0E1D0E034E0C32ED12C80E30E94E000E5
:1003E00088E70E94E000BB2417C02497D801C7010A
:1003F0000C2E04C0B695A795979587950A94D2F7C9
:1004000090E08F7090708A30910510F0C79601C00F
:10041000C0960E94E000B3948B2D90E08C159D0552
:1004200020F3DF91CF911F910F91FF90EF90DF901C
:10043000CF90BF900895AF92BF92CF92DF92EF928C
:10044000FF920F931F93CF93DF937B018C016F3F3C
:1004500071058105910509F018F4E7E0DE2E0DC065
:10046000603030E0730731E0830730E0930718F025
:100470007FE1D72E02C06FE0D62E80E30E94E0001D
:1004800082E60E94E000C0E0D0E0CD2CDD245601E1
:100490000894A11CB11CC6018C1B9D0BA8019701DF
:1004A00004C056954795379527958A95D2F7DA0176
:1004B000C90181709070892B11F081E301C080E344
:1004C0000E94E0002196CA15DB0529F7DF91CF9144
:1004D0001F910F91FF90EF90DF90CF90BF90AF9062
:1004E00008958DE00E94E0008AE00E94E0000895F7
:1004F00080E20E94E00008958CE20E94E0000895EE
:100500001F93CF93DF93EC0110E003C00E94E00043
:100510001F5FFE01E10FF11D80818823B9F7DF9194
:10052000CF911F9108950E9480020E947102089548
:100530000E9480020E94780208950E9480020E9418
:100540007C020895BF92CF92DF92EF92FF920F93B9
:100550001F936B017C01611571058105910531F4D3
:100560001092260181E080932E0123C0BB240B2D25
:1005700010E00E5F1E4FC701B6012AE030E040E0F8
:1005800050E00E943004F80164A3C701B6012AE0DC
:1005900030E040E050E00E943004C901DA016C0113
:1005A0007D01B394C114D104E104F10401F7B092C8
:1005B0002E011F910F91FF90EF90DF90CF90BF9091
:1005C00008951F9310912E0109C01150E12FF0E002
:1005D000EE5FFE4F84A1805D0E94E0001123A9F729
:1005E0001F910895EF92FF920F931F937B018C014F
:1005F00097FF0BC08DE20E94E00010950095F094EB
:10060000E094E11CF11C011D111DC801B7010E94FD
:10061000A2020E94E1021F910F91FF90EF900895B6
:100620000E94F2020E94710208950E94F2020E944A
:10063000780208950E94F20280E091E00E94800218
:1006400008950E94C1010E94710208950E94C10193
:100650000E94780208950E94C10180E091E00E940A
:1006600080020895EF92FF920F931F937A018B01FE
:100670000E9480020E947802C801B7010E94100304
:100680001F910F91FF90EF900895EF92FF920F93BB
:100690001F937A018B010E9480020E947802C80198
:1006A000B7010E9415031F910F91FF90EF900895DD
:1006B000EF92FF920F931F937A018B010E948002A9
:1006C0000E947802C801B7010E941A031F910F917E
:1006D000FF90EF900895EF92FF920F931F937A018E
:1006E0008B010E9480020E947802C801B7010E941B
:1006F00021031F910F91FF90EF900895EF92FF92C9
:100700000F931F937A018B010E9480020E9478024E
:10071000C801B7010E9426031F910F91FF90EF902F
:100720000895EF92FF920F931F937A018B010E941D
:1007300080020E947802C801B7010E942B031F911A
:100740000F91FF90EF900895E2E0F1E0E80FF11DC6
:100750008381089580912501089580E090E0FC0157
:10076000EE5FFE4F1382019680329105C1F7109221
:10077000250108958091040108950E9477000E9448
:1007800099000E94B00008951F920F920FB60F9229
:1007900011242F933F934F935F936F937F938F9386
:1007A0009F93AF93BF93EF93FF9381E080930401F6
:1007B0000E943B01982F80910201882329F5E09146
:1007C0002501F0E0EE5FFE4F9383809125018F5F5E
:1007D0008093250180912501813210F0109225012E
:1007E0001092800010928100109282008FEF86BBE1
:1007F00010926F00109285001092840081E0809327
:10080000810086BB80936F00FF91EF91BF91AF9104
:100810009F918F917F916F915F914F913F912F9118
:100820000F900FBE0F901F9018951F920F920FB64A
:100830000F9211248F9310926F00109281001092EA
:10084000850010928400439A84E08A95F1F74398DA
:10085000109204018F910F900FBE0F901F9018956A
:10086000A1E21A2EAA1BBB1BFD010DC0AA1FBB1FB4
:10087000EE1FFF1FA217B307E407F50720F0A21B26
:10088000B30BE40BF50B661F771F881F991F1A9493
:1008900069F760957095809590959B01AC01BD01BD
:0808A000CF010895F894FFCF89
:0208A8002C0022
:00000001FF
