:100000000C9434000C9451000C9451000C94510049
:100010000C94A4030C9451000C9451000C945100C6
:100020000C9451000C9451000C9451000C9451000C
:100030000C9451000C94F7030C9451000C94510053
:100040000C9451000C9451000C9451000C945100EC
:100050000C9451000C9451000C9451000C945100DC
:100060000C9451000C94510011241FBECFEFD8E026
:10007000DEBFCDBF11E0A0E0B1E0EEE5F8E002C0E8
:1000800005900D92A431B107D9F711E0A4E1B1E0D8
:1000900001C01D92A134B107E1F70E9453000C94F6
:1000A0002D040C9400001F93CF93DF930E949D03B7
:1000B0007894CCE2D1E00E949A03882391F40E94C4
:1000C0008A03882371F010E006C0812F0E94840308
:1000D0000E94D2001F5F0E948A031817B0F30E948B
:1000E0008D03CE010197F1F7E6CF10921401109223
:1000F000150181E08093160180E090E0FC01EC5E48
:10010000FE4F1382019680329105C1F7109237019C
:10011000E8E3F1E0119281E0E034F807D9F71082CA
:100120000895109280001092810010928200109227
:100130006F008FEF86BBE8E6F0E08081826080830D
:10014000ECE6F0E0808180618083D99A789408950C
:100150003D9A459A3C98449A0895459A0895459841
:100160000895813011F4459A08954598089586B10F
:1001700090E024E0969587952A95E1F7817008959F
:100180009C01109285001092840081E08093810090
:10019000809184009091850082179307C8F3109294
:1001A00081000895DF93CF93CDB7DEB72A970FB6BE
:1001B000F894DEBF0FBECDBFFE0131969AE0DF019D
:1001C0001D929A95E9F791E09A87FE01329620E018
:1001D00030E0482F50E061E0CA01022E02C0959540
:1001E00087950A94E2F780FF02C0608301C0108205
:1001F0002F5F3F4F31962830310571F76FB7F89474
:1002000020910E0130910F01FE01319671E0AE0197
:10021000455F5F4F8081813011F4459A01C0459858
:100220001092850010928400709381008091840068
:100230009091850082179307C8F310928100319640
:10024000E417F50739F76FBF2A960FB6F894DEBFAB
:100250000FBECDBFCF91DF910895349B58C083E08E
:100260008093140151C08091840090918500821781
:100270009307C8F3109281006091100170911101F1
:1002800030E040E020E0E2E051E0222381F4349BC2
:1002900041E010928500109284005093810080917B
:1002A00084009091850086179707C8F316C0822FA7
:1002B00081508830A8F434993068283009F0369598
:1002C00010928500109284005093810080918400E8
:1002D0009091850086179707C8F31092810010C08F
:1002E000293071F4349B1FC04170413029F43093A0
:1002F00015011092140104C01092150150931401BD
:100300002F5F2A3009F0C1CF809115010895209107
:10031000120130911301109285001092840081E047
:1003200080938100A0CF10921501E0931401E8CFD3
:10033000809115010895109215010895809315017B
:100340000895BF92CF92DF92EF92FF920F931F9387
:10035000CF93DF937B018C018FEFE816F104010549
:10036000110509F030F4C8E0D0E052E0C52ED12CE0
:1003700014C080E0E81680E0F80681E0080780E01D
:10038000180730F0C0E2D0E048E0C42ED12C05C000
:10039000C0E1D0E034E0C32ED12C80E30E94D20033
:1003A00088E70E94D200BB2417C02497D801C70158
:1003B0000C2E04C0B695A795979587950A94D2F709
:1003C00090E08F7090708A30910510F0C79601C050
:1003D000C0960E94D200B3948B2D90E08C159D05A1
:1003E00020F3DF91CF911F910F91FF90EF90DF905D
:1003F000CF90BF900895AF92BF92CF92DF92EF92CD
:10040000FF920F931F93CF93DF937B018C016F3F7C
:1004100071058105910509F018F4E7E0DE2E0DC0A5
:10042000603030E0730731E0830730E0930718F065
:100430007FE1D72E02C06FE0D62E80E30E94D2006B
:1004400082E60E94D200C0E0D0E0CD2CDD2456012F
:100450000894A11CB11CC6018C1B9D0BA80197011F
:1004600004C056954795379527958A95D2F7DA01B6
:10047000C90181709070892B11F081E301C080E384
:100480000E94D2002196CA15DB0529F7DF91CF9192
:100490001F910F91FF90EF90DF90CF90BF90AF90A2
:1004A00008958DE00E94D2008AE00E94D200089553
:1004B00080E20E94D20008958CE20E94D20008954A
:1004C0001F93CF93DF93EC0110E003C00E94D20092
:1004D0001F5FFE01E10FF11D80818823B9F7DF91D5
:1004E000CF911F9108950E9460020E9451020895C9
:1004F0000E9460020E94580208950E9460020E94B9
:100500005C020895BF92CF92DF92EF92FF920F9319
:100510001F936B017C01611571058105910531F413
:100520001092380181E08093400123C0BB240B2D41
:1005300010E00C5E1E4FC701B6012AE030E040E03B
:1005400050E00E940B04F80164A3C701B6012AE041
:1005500030E040E050E00E940B04C901DA016C0178
:100560007D01B394C114D104E104F10401F7B09208
:1005700040011F910F91FF90EF90DF90CF90BF90BF
:1005800008951F931091400109C01150E12FF0E030
:10059000EC5EFE4F84A1805D0E94D2001123A9F77A
:1005A0001F910895EF92FF920F931F937B018C018F
:1005B00097FF0BC08DE20E94D20010950095F09439
:1005C000E094E11CF11C011D111DC801B7010E943E
:1005D00082020E94C1021F910F91FF90EF90089537
:1005E0000E94D2020E94510208950E94D2020E94EB
:1005F000580208950E94D20280E091E00E946002B9
:1006000008950E94A1010E94510208950E94A10133
:100610000E94580208950E94A10180E091E00E948A
:1006200060020895EF92FF920F931F937A018B015E
:100630000E9460020E945802C801B7010E94F002A5
:100640001F910F91FF90EF900895EF92FF920F93FB
:100650001F937A018B010E9460020E945802C80118
:10066000B7010E94F5021F910F91FF90EF9008953E
:10067000EF92FF920F931F937A018B010E94600209
:100680000E945802C801B7010E94FA021F910F91FF
:10069000FF90EF900895EF92FF920F931F937A01CE
:1006A0008B010E9460020E945802C801B7010E949B
:1006B00001031F910F91FF90EF900895EF92FF9229
:1006C0000F931F937A018B010E9460020E945802CF
:1006D000C801B7010E9406031F910F91FF90EF9090
:1006E0000895EF92FF920F931F937A018B010E945E
:1006F00060020E945802C801B7010E940B031F91BB
:100700000F91FF90EF900895E4E1F1E0E80FF11D03
:100710008381089580913701089580E090E0FC0185
:10072000EC5EFE4F1382019680329105C1F7109264
:10073000370108958091160108950E9475000E9466
:1007400091000E94A80008951F920F920FB60F9279
:1007500011242F933F934F935F936F937F938F93C6
:100760009F93AF93BF93EF93FF9381E08093160124
:100770000E942D01982F80911401882339F5E09172
:100780003701F0E0EC5EFE4F9383809137018F5F7D
:100790008093370180913701813210F01092370138
:1007A0001092800010928100109282008FEF86BB21
:1007B00010926F0088E09FEC9093850080938400F6
:1007C00081E08093810086BB80936F00FF91EF9161
:1007D000BF91AF919F918F917F916F915F914F9159
:1007E0003F912F910F900FBE0F901F9018951F9261
:1007F0000F920FB60F92112410926F001092810089
:100800001092850010928400109216010F900FBE76
:100810000F901F901895A1E21A2EAA1BBB1BFD0179
:100820000DC0AA1FBB1FEE1FFF1FA217B307E407CF
:10083000F50720F0A21BB30BE40BF50B661F771F27
:10084000881F991F1A9469F7609570958095909507
:0E0850009B01AC01BD01CF010895F894FFCFCC
:10085E002C00CE049C044E024E023A02E600180111
:04086E000E01460031
:00000001FF
