:100000000C9434000C9451000C9451000C94510049
:100010000C9451000C942F030C9451000C9451003B
:100020000C9451000C9451000C9451000C9451000C
:100030000C9451000C9451000C9451000C945100FC
:100040000C9451000C9451000C9451000C945100EC
:100050000C9451000C9451000C9451000C945100DC
:100060000C9451000C94510011241FBECFEFD8E026
:10007000DEBFCDBF11E0A0E0B1E0EEE6F7E002C0E8
:1000800005900D92A230B107D9F711E0A2E0B1E0DE
:1000900001C01D92A331B107E1F70E9453000C94F7
:1000A000B5030C9400000E942803549A5C9878943D
:1000B0000E9406018823E1F381E60E94B0000E94BD
:1000C0000901F6CF1092020110920301E4E0F1E081
:1000D000119281E0EC30F807D9F710821282118278
:1000E000148213821582168208951092800081E096
:1000F000809381001092820010926F0016BAE8E699
:10010000F0E0808184608083EDE6F0E080818062B1
:10011000808378940895569A5E9A55985D9A0895CA
:100120005E9A08955E980895813011F45E9A08955C
:100130005E98089589B190E025E0969587952A9577
:10014000E1F7817008959C0110928500109284005F
:10015000809184009091850082179307C8F30895D9
:10016000DF93CF93CDB7DEB72A970FB6F894DEBFF3
:100170000FBECDBFFE0131969AE0DF011D929A9528
:10018000E9F791E09A87FE01329620E030E0482FAF
:1001900050E061E0CA01022E02C0959587950A944D
:1001A000E2F780FF02C0608301C010822F5F3F4FE3
:1001B00031962830310571F72FB727FF01C0F89429
:1001C000FE013196AE01455F5F4F8081813011F4B1
:1001D0005E9A01C05E981092850010928400809112
:1001E0008400909185008E5C9440C8F33196E417AA
:1001F000F50759F727FF01C078942A960FB6F894AF
:10020000DEBF0FBECDBFCF91DF9108958091030176
:100210000895109203010895809303010895BF92F9
:10022000CF92DF92EF92FF920F931F93CF93DF93C2
:100230007B018C018FEFE816F1040105110509F02F
:1002400030F4C8E0D0E052E0C52ED12C14C080E0DC
:10025000E81680E0F80681E0080780E0180730F033
:10026000C0E2D0E048E0C42ED12C05C0C0E1D0E00F
:1002700034E0C32ED12C80E30E94B00088E70E94B6
:10028000B000BB2417C02497D801C7010C2E04C0AE
:10029000B695A795979587950A94D2F790E08F70B9
:1002A00090708A30910510F0C79601C0C0960E94E8
:1002B000B000B3948B2D90E08C159D0520F3DF9159
:1002C000CF911F910F91FF90EF90DF90CF90BF9053
:1002D0000895AF92BF92CF92DF92EF92FF920F9369
:1002E0001F93CF93DF937B018C016F3F71058105D5
:1002F000910509F018F4E7E0DE2E0DC0603030E023
:10030000730731E0830730E0930718F07FE1D72EC1
:1003100002C06FE0D62E80E30E94B00082E60E9409
:10032000B000C0E0D0E0CD2CDD2456010894A11C23
:10033000B11CC6018C1B9D0BA801970104C05695EA
:100340004795379527958A95D2F7DA01C9018170CB
:100350009070892B11F081E301C080E30E94B0000E
:100360002196CA15DB0529F7DF91CF911F910F91D7
:10037000FF90EF90DF90CF90BF90AF9008958DE009
:100380000E94B0008AE00E94B000089580E20E94BE
:10039000B00008958CE20E94B00008951F93CF939F
:1003A000DF93EC0110E003C00E94B0001F5FFE016C
:1003B000E10FF11D80818823B9F7DF91CF911F9163
:1003C00008950E94CE010E94BF0108950E94CE01AF
:1003D0000E94C60108950E94CE010E94CA0108959C
:1003E000BF92CF92DF92EF92FF920F931F936B0118
:1003F0007C01611571058105910531F410920401AC
:1004000081E080930C0123C0BB240B2D10E00E5F14
:100410001E4FC701B6012AE030E040E050E00E94E4
:100420009303F8016283C701B6012AE030E040E09F
:1004300050E00E949303C901DA016C017D01B3947D
:10044000C114D104E104F10401F7B0920C011F9131
:100450000F91FF90EF90DF90CF90BF9008951F9382
:1004600010910C0109C01150E12FF0E0EE5FFE4F3A
:100470008281805D0E94B0001123A9F71F91089529
:10048000EF92FF920F931F937B018C0197FF0BC09C
:100490008DE20E94B00010950095F094E094E11C6C
:1004A000F11C011D111DC801B7010E94F0010E943D
:1004B0002F021F910F91FF90EF9008950E9440022C
:1004C0000E94BF0108950E9440020E94C601089543
:1004D0000E94400280E091E00E94CE0108950E94B7
:1004E0000F010E94BF0108950E940F010E94C601E2
:1004F00008950E940F0180E091E00E94CE010895CE
:10050000EF92FF920F931F937A018B010E94CE010D
:100510000E94C601C801B7010E945E021F910F919F
:10052000FF90EF900895EF92FF920F931F937A013F
:100530008B010E94CE010E94C601C801B7010E9432
:1005400063021F910F91FF90EF900895EF92FF9239
:100550000F931F937A018B010E94CE010E94C60166
:10056000C801B7010E9468021F910F91FF90EF90A0
:100570000895EF92FF920F931F937A018B010E94CF
:10058000CE010E94C601C801B7010E946F021F91EF
:100590000F91FF90EF900895EF92FF920F931F93AA
:1005A0007A018B010E94CE010E94C601C801B701E9
:1005B0000E9474021F910F91FF90EF900895EF92A7
:1005C000FF920F931F937A018B010E94CE010E942C
:1005D000C601C801B7010E9479021F910F91FF90D7
:1005E000EF90089580910F019091100101969093E2
:1005F000100180930F0185369105B8F080910D01AF
:1006000090910E01019690930E0180930D01895EE9
:100610009D4F20F010920E0110920D0110921001CA
:1006200010920F0181E080931101089580910D01D6
:1006300090910E01089580910F01909110010895FD
:1006400080911101882319F01092110181E0089521
:100650000E9462000E9475000E948B0008951F9204
:100660000F920FB60F9211242F933F934F935F93E6
:100670008F939F934D994CC046C080918400909178
:1006800085008E549240C8F330E040E020E0222301
:1006900071F44D9B41E0109285001092840080918E
:1006A0008400909185008C599440C8F328C0822F13
:1006B00081508830C0F489B190E055E096958795D7
:1006C0005A95E1F78170382B283009F0330F1092DA
:1006D00085001092840080918400909185008C594F
:1006E0009440C8F30CC0293051F44D9B06C04170B2
:1006F000413019F43093030102C0109203012F5FBF
:100700002A3029F605C01092850010928400B5CFDA
:100710009F918F915F914F913F912F910F900FBEBD
:100720000F901F901895A1E21A2EAA1BBB1BFD016A
:100730000DC0AA1FBB1FEE1FFF1FA217B307E407C0
:10074000F50720F0A21BB30BE40BF50B661F771F18
:10075000881F991F1A9469F76095709580959095F8
:0E0760009B01AC01BD01CF010895F894FFCFBD
:02076E002C005D
:00000001FF
