:100000000C9484040C94A1040C94A1040C94A104F9
:100010000C94A1040C94500E0C94A1040C94A10413
:100020000C94A1040C94A1040C94A1040C94A104BC
:100030000C94A1040C94A1040C94A1040C94A104AC
:100040000C948F0E0C94A1040C94A1040C94A104A4
:100050000C94A1040C94A1040C94A1040C94A1048C
:100060000C94A1040C94A10400708008780840044A
:100070003C0411000000000000000000000000002F
:100080000000000000000000C05C0000C08F000005
:10009000C0730000C0710000C06F0000C06D0000A0
:1000A000C06B0000C0690000C0670000C0650000B0
:1000B000C0630000C0610000C05F0000C05D0000C0
:1000C000C05B0000C0590000C0570000C0550000D0
:1000D000C0530000C0510000C04F0000C04D0000E0
:1000E000C04B0000C0490000C0470000C0450000F0
:1000F00003040409031C007700770077002E0066D4
:100100000069007300630068006C002E00640065E5
:10011000030E00550053004200610073007001128D
:10012000011000FF080016C005DC010202010100F9
:1001300002090012010180000932000400000000E1
:1001400000002411BE1FEFCFE0D8BFDEBFCDE0110D
:10015000E0A0E0B1E6EEE7F8C0029005920D30A60F
:1001600007B1F7D9E011E0A6E0B1C001921D33ADAF
:1001700007B1F7E1D163C3BDCF872FA82FB9E080C6
:10018000E090E041EA509560E030C009912D27826F
:1001900095979587F010278427955E30F3C85F6F99
:1001A000F3A89508DFEA938D939D950893CFB7CF79
:1001B00093CF95C39B4BF7E99B4BC0099B4BC00763
:1001C0009B4BC0059B4BC0039B4BC001C0A193DF61
:1001D00091C0012027DD5DC94FDE9B4BC00291DF3E
:1001E000CFEB932F930F931FB109EF2FFB03F92050
:1001F000934F933FB119EF4F2701FB03F921E03BE8
:10020000C0317F4E2F01B1196021C0282F107F4DC2
:1002100060220000B109C0297F4B60242F0100003B
:10022000B119C02BB1197F476028C02A7E4FB10990
:100230006120C02C7D4FB1196220C02F7B4FB109C6
:100240006420C0322742B1099349EF4F00002710C4
:10025000FB13F920B119701CF1C97F29F291270114
:10026000FB03F921B1097F23F2895031F15827109E
:10027000FB13F922B1197E27F2792701FB03F92339
:100280007C2FF281B1092710FB13F924792FF27129
:10029000C000B1192701FB03F925732FF259C000E3
:1002A000B1092710FB13F9263022F240C000B11922
:1002B0002701FB03F9273024F628774F6820B1196E
:1002C0000000CFF9E011BB1C2700C017503B95314F
:1002D0001BC340D0E011BB1C81083C03F0E9340B88
:1002E000F0D99120011E81190F111312CFED36099B
:1002F000F141320DF0113E01F73993000125913F94
:10030000914F911F910F912F91DFB3CCFDC0CF5131
:1003100091CFBFCF91CF9518912001252322F3795A
:10032000911001232311F5113034F1129330012380
:100330009320011F91100120E03B1B3193300120DD
:10034000C017910001233001F48CE50A91300100BF
:10035000FD34C01093000100E1C3E0D1C00F952728
:10036000F4A85051F4A90F220000CFF9E54AC003C8
:10037000ED42C0012F43E1C4E0D0E032B11A601C6D
:100380009A5BB91AB10BE420E01C935F2701E05699
:10039000B90B9527F4205051F4210F22CFF92701F2
:1003A000E05600005A3BB90BF2D09527F428505183
:1003B000F4290F220000CFF92701E0569527B90B49
:1003C000F4205051F4210F22CFF92701E056912952
:1003D0002333B90BF6217F03911001240F1151C66D
:1003E00040D0B90BF0119310011EE011BB1C600846
:1003F000B11A7F132F407F43915FC000C000B90B3B
:10040000B91AB94BCF7C985C9854B81BB81A94F8B9
:10041000BA1DE6E9E0F08210E081BF85BE159210BA
:10042000008192100085921000849A538210BA1DA8
:10043000BA1C91E0011191F001129509E188B60F03
:1004400094F89380006092100060BE0F92100080BC
:100450009210008192100082921000899210008800
:100460009210008B9210008A9210008792100086E2
:100470009210006FBA16E08593800081921000857B
:1004800092100084B7843088F409C21CBE14E08145
:10049000BF85E082BF85918000696082938000699A
:1004A0009AE89A53E020C00595A8EB88E09B970155
:1004B000F7F15021F7C99853947892100085921063
:1004C00000849A549A5C24CC24DD9120012350238B
:1004D000FD27C16991800120E00CE0101B08091183
:1004E0005D094F1E9180011F328DF009C0DD30285B
:1004F000F009C157EC8393800113E58A93800100D2
:100500009210010A01D8913C2F8376809611912C8C
:1005100097112388F409C051E086E091939001225D
:10052000938001213023F4F99613919C971396142C
:10053000918C97149612912C3320F43970832FE804
:10054000E0F05FEE4FFE8180C00A3A20F411D1BB8B
:10055000C0063C20F41901F88165D1BDE08093808C
:100560000109E094C0933025F411E091C08F2F82EF
:1005700050843086F4D801D89612918D919C9713AF
:100580009390010D9380010C3029F0A99616919C4F
:1005900097169390010E9615918C70829380010F9F
:1005A00093200110FD37C06DEF2FC06C3022F4197D
:1005B000E0819380010BE090C06901F88182921084
:1005C000011C2322F4319210011DE12CE031E09254
:1005D000C0533025F41993800124C04B3026F5C94F
:1005E00001D89613918C3081F419E986E790C00404
:1005F0003082F441EA88E7909390012293800121B0
:10060000E192C0233083F50101F881822388F4410F
:10061000E688E7909390012293800121E094C01531
:100620003081F441E68CE790939001229380012180
:10063000E19CC00B3082F441E888E790939001225E
:1006400093800121E09EC001E090E4809380010A44
:10065000C01D3028F419E226E031C0093029F41910
:1006600093800126C006302AF421E12CE031E0918C
:10067000C003E12CE031E09093300122932001216E
:10068000C0052F29E8809380010AC00B01D8961776
:10069000918C97172388F4219616912C1729F0082E
:1006A0002F2993200101C07D9180010AFF87C07925
:1006B00092100081E081E090939000859380008407
:1006C0009180010E2EF21782F4082EF8198F938074
:1006D000010E24EE2388F41124EE94E3918001109E
:1006E0003087F01001E8C0149150010F91E0010C27
:1006F00091F0010DE040C04A9180010C9190010DF4
:1007000096019390010D9380010C97019169D0E3BC
:1007100001FE1BE015EFF380C04001CF778F709092
:100720002B89F44994F8E0839380005795E89478F6
:10073000B607FC00CFFD5F4E94F801D8918D919DD6
:10074000018DE021010C9320005795E82411947845
:10075000019F5F2E4F3F01C9778F70902B89F03139
:1007600020EEF099154FF0882355F07994F8E08544
:100770009380005795E89478B607FC00CFFD94F875
:10078000E1819380005795E8947801F9154FF408BA
:10079000CFC493F0010D93E0010C20EEF011921004
:1007A00001019210012391800100FF84C0719180AA
:1007B00001013F8FF409C06C2F183089F008E01850
:1007C0001B819380010191800113E8982789938010
:1007D00001132311F409C04A9180010AFF87C02A3E
:1007E0009180010E1781F4082F181B819380010E50
:1007F00091000110E1C4E0D1C01591E0010C91F02D
:10080000010D3007F01801CFD05EC00191848388BC
:1008100096219180010C9190010D96019390010D0C
:100820009380010C2F81E0905E8C4F9E17C807D9F2
:10083000F721C01A91E0012191F00122FF86C00941
:100840002F91E1A4E0B19184938D96315091F7D925
:10085000C0072F91E1A4E0B19181938D5091F7E110
:1008600093F0012293E001213019F460E184E091DA
:100870002F61DC982F615F6C306CF041EF8F9380BB
:100880000101C004EF8F93800101E16E93600100CC
:10089000E194B189708CF4315091F7D99210012410
:1008A0009210011E9180010B2388F02194CAF4114B
:1008B00094DAF041918000849190008556804E9AA0
:1008C000F408CE03DDA099F9CFFEBD92BD819AF860
:1008D0002799B58095082F2699F9CFFEBA1FBD92AA
:1008E000BD81BD20B60F94F89AFA9AF9BE0F960111
:1008F000950894F8CFFFFF5A951E000F0000007076
:10090000FFFFFFFFFFFFFFFF11241FBECFEFD8E067
:10091000DEBFCDBF13E0A0E0B1E0E6EFFEE102C034
:1009200005900D92A63EB107D9F714E0A6EEB3E00C
:1009300001C01D92A63BB107E1F70E94A3040C94ED
:10094000790F0C9400001F93CF93DF930E94490E00
:1009500080E091E00E940C0D8EE091E00E94F90C85
:1009600064B770E080E090E00E949A0D0E94EA0C6B
:100970000E94AD070E94AF050E94FF0A882309F478
:10098000CDC08EE191E00E940C0D0E94C40A87E365
:1009900091E00E94F90C0E94E4070E949A0D87E4FE
:1009A00091E00E94F90C0E94ED0790E0A0E0B0E019
:1009B000BC01CD010E949A0D87E591E00E94F90CDF
:1009C0000E94F00790E0A0E0B0E0BC01CD010E94E1
:1009D0009A0D87E691E00E94F90C0E94F30790E0DF
:1009E000A0E0B0E0BC01CD010E949A0D87E791E044
:1009F0000E94F90C0E94F60790E0A0E0B0E0BC0174
:100A0000CD010E949A0D0E94EA0C87E891E00E94B5
:100A10000C0D82EE0E94430A882331F083EA91E0B4
:100A20000E940C0D11E005C081EC91E00E940C0DBC
:100A300010E080ED0E94080A882329F083EE91E0FF
:100A40000E940C0D05C081E092E00E940C0D10E0A8
:100A50000E94FF0A882309F465C0113009F062C0C2
:100A60000E94C40A0E94E4076F5075498E4190406D
:100A700009F058C083E292E00E940C0D0E944A09DE
:100A80008FE392E00E940C0D8AE592E00E940C0D2B
:100A90000E94E30887E792E00E940C0D8CE992E047
:100AA0000E940C0D0E945608882351F08BEB92E0B7
:100AB0000E940C0D8FEF0E94430A882321F40DC081
:100AC00089ED92E02DC082E093E00E940C0D80ED54
:100AD0000E94080A882321F40DC081EC91E020C017
:100AE00083EE91E00E940C0D8FEC0E94B6098823E2
:100AF00021F411C081E092E013C080E293E00E94F3
:100B00000C0D8EE393E00E940C0D8EE593E00E94A5
:100B10000C0D11E008C086E893E002C088EA93E07B
:100B20000E940C0D10E00E94EA0C0E94EA0C0E9448
:100B3000CF0ACCE2D1E00E94C705112341F088E83A
:100B400093E1FE013197F1F70197D9F7F4CF88EEE1
:100B500093E0FE013197F1F70197D9F7ECCF549A62
:100B60005C9808955C9A08955C9808958BB190E024
:100B700024E0969587952A95E1F781700895813054
:100B800011F45C9A0895882309F45C9808955C9B9D
:100B900002C080E001C081E00E94BF05089510926C
:100BA000E6031092E7031092E8031092EA03109212
:100BB000E90380E190E09093EC038093EB0380E203
:100BC00090E09093EE038093ED0380E490E09093A7
:100BD000F0038093EF0380E890E09093F20380931A
:100BE000F10380E091E09093F4038093F30380E0BD
:100BF00092E09093F6038093F50380E094E0909365
:100C0000F8038093F70380E098E09093FA038093D1
:100C1000F90384E08093FB0386E08093FC0389E082
:100C20008093FD038BE08093FE030895259808953B
:100C3000259A0895813011F42D9A0895882309F496
:100C40002D98089524980895249A0895813011F4D8
:100C50002C9A0895882309F42C98089583B190E084
:100C600024E0969587952A95E1F781700895239859
:100C70000895239A0895813011F42B9A08958823BA
:100C800009F42B98089522980895229A08958130A6
:100C900011F42A9A0895882309F42A98089522982D
:100CA00081E00E9447060895229A80E00E9447064C
:100CB0002598249823980895229A80E00E94470658
:100CC0008CED95E00197F1F7259A2498239A80E01E
:100CD0000E941A0681E00E943B060895109280004F
:100CE000E1E8F0E010821092820010926F0016BAD4
:100CF00082E0808308951CBC1DBC1EBC882319F4AF
:100D00008CB58E7F09C0813019F48CB58E7F0CC0F4
:100D1000823031F48CB581608CBD8CB58D7F14C070
:100D2000833031F48CB581608CBD8CB58D7F15C05E
:100D3000843019F48CB58E7F04C0853049F48CB5AD
:100D400081608CBD8CB582608CBD8DB5816008C022
:100D50008CB581608CBD8CB582608CBD8DB58E7F6D
:100D60008DBD1092E8031092EA031092E9038CB54E
:100D700080658CBD08951CBC1DBC1EBC873041F431
:100D800081E08093E8038091EB039091EC0325C010
:100D9000883041F481E08093E8038091ED039091E5
:100DA000EE031BC0893041F481E08093E803809119
:100DB000EF039091F00311C08A3041F481E08093F9
:100DC000E8038091F1039091F20307C081E08093E2
:100DD000E8038091F3039091F4039093EA038093E6
:100DE000E9030895873018F40E947B0608950E9455
:100DF000BB06089510928500109284002091E903AB
:100E00003091EA03809184009091850082179307C6
:100E1000C8F3089510928500109284002091E90390
:100E20003091EA0336952795809184009091850052
:100E300082179307C8F308958EBD0DB407FEFDCF4A
:100E40008EB50895FF920F931F93F82E00E010E0E7
:100E5000F7FE02C081E001C080E00E943B06110F56
:100E600083B190E054E0969587955A95E1F78170AB
:100E7000182B0E940A0781E00E941A061092850032
:100E8000109284002091E9033091EA03809184005C
:100E90009091850082179307C8F380E00E941A069C
:100EA0000E940A070F5F083011F0FF0CD1CF81E0DC
:100EB0000E943B06812F1F910F91FF900895982F5C
:100EC0008091E803882321F0892F0E94220708954A
:100ED0009EBD0DB407FEFDCF8EB508951F93182F4C
:100EE0000E94CF050E945C060E946E06812F0E9420
:100EF000F2061F910895843030F4E82FF0E0EA51B3
:100F0000FC4F858901C08BE00E946E070895809197
:100F1000E60308958091E703089510927F041092EC
:100F20008004109281041092820410928304109223
:100F30008404109285041092860410928704109203
:100F400088040895EFEFF3E08FEF90E081939193A1
:100F500024E0EF37F207D1F708950E948D07EFEFF5
:100F6000F3E08FEF90E08193919324E0EF37F20765
:100F7000D1F70895FC01EE0FFF1FE859FF4F2591AF
:100F80003491C90108959C01220F331F28593F4F06
:100F9000AFEFB3E0F901859194918D939D932E5F0E
:100FA0003F4FF4E0AF37BF07A9F70895FC01EE0FFC
:100FB000FF1FE150FC4F808191810895809184044E
:100FC000089580918304089560917F047091800456
:100FD0008091810490918204089580918504089500
:100FE00080918604089580918704089580918804F3
:100FF000089580EF0E945F0780E00E945F0780E015
:101000000E945F0780E00E945F0781700895CF9380
:10101000DF93CCE2D1E003C0CE010197F1F70E944B
:10102000F9078823C9F7DF91CF910895FF920F93B5
:101030001F938C010E94070888E20E945F07812F9E
:101040000E945F07802F0E945F0780E00E945F0779
:10105000F82E0E94070880E20E945F07812F0E94FD
:101060005F07802F0E945F0780E00E945F07082FC4
:101070000E9407089F2D80E010E0082B192BC80163
:101080001F910F91FF9008950F931F93CF93DF93BC
:101090000E941608182F00E0C92FD0E00C2B1D2B42
:1010A000C801DF91CF911F910F910895CF92DF92E8
:1010B000EF92FF920F931F93CF93DF93E8E6F0E058
:1010C000E590F490F694E794EEE6F0E0C590D490C5
:1010D00008E810E0C0E0D0E010C0CE018E0D9F1DEA
:1010E0000E944408F801259134910E5F1F4F82172A
:1010F000930711F080E005C02196CC15DD0568F35B
:1011000081E0DF91CF911F910F91FF90EF90DF90E1
:10111000CF900895FF920F931F93182FF62E072F4D
:101120000E94070880E40E945F0780E00E945F073A
:101130001F73812F0E945F07802F0E945F070E940C
:10114000070888E40E945F0780E00E945F07812F04
:101150000E945F078F2D0E945F070E9407081F9162
:101160000F91FF9008951F93CF93DF93EC0110E050
:1011700069917991812F0E948A081F5F1034C1F70D
:10118000DF91CF911F9108951F93182FCB010E94DB
:10119000B3088CE40E945F07812F869586950E9494
:1011A0005F07812F8295880F880F807C0E945F07E0
:1011B00080E00E945F0788E99AE30197F1F70E94B7
:1011C00007081F910895CF92DF92EF92FF920F933D
:1011D0001F93CF93DF93E8E6F0E0E590F490EE0CF8
:1011E000EF2CEE1CFF08F194E2E7F0E0C590D490FC
:1011F000C0E0D0E000E110E00DC0C8010E94C307CC
:101200009E012E0D822F6FEF73E00E94C40821967D
:10121000005C1F4FCC15DD0580F3DF91CF911F914E
:101220000F91FF90EF90DF90CF9008950F931F9351
:101230008C010E94070880EA0E945F07812F83705B
:101240000E945F07802F0E945F0780E00E945F0777
:10125000182F0E940708812F1F910F910895FF9268
:101260000F931F93182F092FF62E0E94070880EC6A
:101270000E945F07802F83700E945F07812F0E946A
:101280005F078F2D0E945F070E9407081F910F9133
:10129000FF9008950E9407088CEA0E945F0780E88B
:1012A0000E945F0780E00E945F0780E00E945F0766
:1012B0000E94070808951F93182F8CEA0E945F0769
:1012C00080EE0E945F0780E00E945F07812F0E94EE
:1012D0005F070E9407081F9108951F93182F8CEA3B
:1012E0000E945F0784EA0E945F0780E00E945F0718
:1012F000812F0E945F070E9407081F9108951F9386
:10130000182F8CEA0E945F0788EA0E945F0780E03E
:101310000E945F07812F0E945F070E9407081F91AC
:1013200008951F93182F8CEA0E945F0780EA0E949D
:101330005F0780E00E945F07812F0E945F070E9485
:1013400007081F9108950E9407081092880488E5F5
:101350000E945F0780E00E945F0780E00E945F07B5
:1013600080E00E945F078093880408951F93182FE0
:101370000E940708812F0E945B090E94A30990E048
:10138000811709F491E0892F1F9108950E94A30904
:101390008F3F11F080E008958FEC0E94B609811113
:1013A00081E008950E9407081092870480E50E945A
:1013B0005F0788E00E945F0780E00E945F0780E08F
:1013C0000E945F078093870408951F93182F0E943F
:1013D0000708812F0E946D090E94D20990E08117B1
:1013E00009F491E0892F1F9108950E940708109237
:1013F000860488E50E945F0788E00E945F0780E01E
:101400000E945F0780E00E945F0780938604089532
:101410001F93182F0E940708812F0E947F090E94A6
:10142000F50990E0811709F491E0892F1F91089543
:101430000E94D2098F3F11F080E008958FEF0E9443
:10144000080A811181E008950E94F509893D11F093
:1014500080E0089580ED0E94080A811181E00895DE
:101460000E9407081092850480E50E945F0780E0D3
:101470000E945F0780E00E945F0780E00E945F0794
:101480008093850408951F93182F0E940708812FC9
:101490000E9491090E94300A90E0811709F491E0BE
:1014A000892F1F9108950E94300A823611F080E042
:1014B000089582EE0E94430A811181E00895EF921F
:1014C000FF921F93DF93CF93CDB7DEB72C970FB664
:1014D000F894DEBF0FBECDBFDE011196E6ECF3E05F
:1014E0008CE001900D928150E1F77E010894E11C9F
:1014F000F11C10E080E30E945F0780E00E945F071C
:10150000812F0E945F0780E00E945F0790E0A0E0CB
:10151000B0E0F70181939193A193B1937F011F5F95
:10152000133041F729813A814B815C81542F432F3D
:10153000322F22278D819E81AF81B885282B392BB0
:101540004A2B5B2B542F432F322F222789859A85D4
:10155000AB85BC85282B392B4A2B5B2B20937F0432
:10156000309380044093810450938204B901CA01EE
:101570002C960FB6F894DEBF0FBECDBFCF91DF9192
:101580001F91FF90EF9008950E945F0A0E94300A19
:101590000E94F5090E94D2090E94A30908950E94A1
:1015A00054068CED95E00197F1F781E00E94470623
:1015B00080E395E70197F1F708950F931F9380E07B
:1015C0000E94470680E00E941A060CED15E0C80153
:1015D0000197F1F781E00E944706C8010197F1F7F2
:1015E00080E00E9447068CE291E02CE231E0F901B4
:1015F0003197F1F70197D9F71F910F910895EF9265
:10160000FF920F931F93FF2400E010E00E948D07CC
:10161000812F0E947B070E94DD0A8CEA0E945F07EF
:1016200083E50E945F0780E00E945F07E82E80E06C
:101630000E945F07F394143028F484E08F1510F4AF
:101640001F5FFF24109384040F5F053121F4109273
:10165000830480E006C00093830483E5E816B1F6B6
:1016600081E01F910F91FF90EF90089510928904EF
:1016700010928A0481E080938B0480E090E0FC016A
:10168000E757FB4F1382019680329105C1F7109204
:10169000AC04EDEAF4E0119284E0E53BF807D9F7F9
:1016A0001082089514BC15BC10926E008FEF85BB9C
:1016B000E8E6F0E0808184608083EDE6F0E0808100
:1016C00081608083DA9A789408958FEF85BBEEE687
:1016D000F0E0108288EC86BD84E085BD81E085BBAA
:1016E0008083089510926E0015BC16BC0895519A1F
:1016F000599A5098589A0895599A08955998089562
:10170000813011F4599A08955998089589B18170DA
:1017100008959C0116BC81E085BD86B58233E8F34F
:1017200016BC86B590E082179307D8F315BC0895D0
:101730008091E0039091E1030E94890B08958091CC
:10174000E2039091E3030E94890B08958091E403E2
:101750009091E5030E94890B0895DF92EF92FF922A
:101760000F931F93DF93CF93CDB7DEB72A970FB6B2
:10177000F894DEBF0FBECDBFFE0131969AE0DF01C7
:101780001D929A95E9F791E09A87FE01329620E042
:1017900030E0482F50E061E0CA01022E02C095956A
:1017A00087950A94E2F780FF02C0608301C010822F
:1017B0002F5F3F4F31962830310571F7DFB6F8942F
:1017C0008E010F5F1F4F8BE0E82EF12CEC0EFD1EFB
:1017D000F8018081813011F4599A01C059980E9412
:1017E000980B0F5F1F4F0E151F0591F7DFBE2A964E
:1017F0000FB6F894DEBF0FBECDBFCF91DF911F9122
:101800000F91FF90EF90DF900895FF920F931F9339
:10181000489B21C082E017C00E949F0B4899006836
:10182000173009F006951F5F1830B1F70E949F0B23
:1018300089B1F0FC07C080FF05C000938A041092B4
:10184000890403C081E08093890480918A041F91F8
:101850000F91FF9008950E94A60BF9B000E010E0F0
:10186000DBCF80918A04089510928A0408958093B2
:101870008A040895BF92CF92DF92EF92FF920F9366
:101880001F93CF93DF937B018C018FEFE816F10458
:101890000105110509F030F432E0C32ED12CC8E067
:1018A000D0E014C080E0E81680E0F80681E0080788
:1018B00080E0180730F028E0C22ED12CC0E2D0E042
:1018C00005C094E0C92ED12CC0E1D0E080E30E9495
:1018D000AD0B88E70E94AD0BBB2417C02497D8013D
:1018E000C7010C2E04C0B695A795979587950A94C5
:1018F000D2F790E08F7090708A30910510F0C79603
:1019000001C0C0960E94AD0BB3948B2D90E08C1556
:101910009D0520F3DF91CF911F910F91FF90EF90E4
:10192000DF90CF90BF900895AF92BF92CF92DF9299
:10193000EF92FF920F931F93CF93DF937B018C0164
:101940006F3F71058105910509F018F467E0D62E07
:101950000DC0603030E0730731E0830730E093075B
:1019600018F05FE1D52E02C04FE0D42E80E30E9434
:10197000AD0B82E60E94AD0BC0E0D0E0CD2CDD24A3
:1019800056010894A11CB11CC6018C1B9D0BA8011B
:10199000970104C056954795379527958A95D2F7B4
:1019A000DA01C90181709070892B11F081E301C0C7
:1019B00080E30E94AD0B2196CA15DB0529F7DF9164
:1019C000CF911F910F91FF90EF90DF90CF90BF903C
:1019D000AF9008958DE00E94AD0B8AE00E94AD0BA0
:1019E000089580E20E94AD0B08958CE20E94AD0B39
:1019F00008951F93CF93DF93EC0110E003C00E9482
:101A0000AD0B1F5FFE01E10FF11D80818823B9F747
:101A1000DF91CF911F9108950E94F90C0E94EA0C6A
:101A200008950E94F90C0E94F10C08950E94F90C8F
:101A30000E94F50C0895BF92CF92DF92EF92FF9231
:101A40000F931F936B017C01611571058105910551
:101A500031F41092AD0481E08093B50423C0BB241F
:101A60000B2D10E007571B4FC701B6012AE030E0ED
:101A700040E050E00E94570FF80164A3C701B6018F
:101A80002AE030E040E050E00E94570FC901DA013F
:101A90006C017D01B394C114D104E104F10401F798
:101AA000B092B5041F910F91FF90EF90DF90CF900F
:101AB000BF9008951F931091B50409C01150E12FF4
:101AC000F0E0E757FB4F84A1805D0E94AD0B11232E
:101AD000A9F71F910895EF92FF920F931F937B0137
:101AE0008C0197FF0BC08DE20E94AD0B1095009505
:101AF000F094E094E11CF11C011D111DC801B70117
:101B00000E941B0D0E945A0D1F910F91FF90EF90A4
:101B100008950E946B0D0E94EA0C08950E946B0DBF
:101B20000E94F10C08950E946B0D82ED93E00E94DB
:101B3000F90C08950E943A0C0E94EA0C08950E9444
:101B40003A0C0E94F10C08950E943A0C82ED93E049
:101B50000E94F90C0895EF92FF920F931F937A0160
:101B60008B010E94F90C0E94F10CC801B7010E9480
:101B7000890D1F910F91FF90EF900895EF92FF92C2
:101B80000F931F937A018B010E94F90C0E94F10CB4
:101B9000C801B7010E948E0D1F910F91FF90EF9029
:101BA0000895EF92FF920F931F937A018B010E9489
:101BB000F90C0E94F10CC801B7010E94930D1F910E
:101BC0000F91FF90EF900895EF92FF920F931F9364
:101BD0007A018B010E94F90C0E94F10CC801B70137
:101BE0000E949A0D1F910F91FF90EF900895EF9230
:101BF000FF920F931F937A018B010E94F90C0E94B0
:101C0000F10CC801B7010E949F0D1F910F91FF9029
:101C1000EF900895EF92FF920F931F937A018B013B
:101C20000E94F90C0E94F10CC801B7010E94A40D9A
:101C30001F910F91FF90EF900895E9E8F4E0E80F0D
:101C4000F11D838108958091AC04089580E090E0B7
:101C5000FC01E757FB4F1382019680329105C1F7D3
:101C60001092AC04089580918B04089580918B04A8
:101C7000882311F090E008C08091AC0490E08823A4
:101C800009F491E081E09827892F08958091AC04B0
:101C900008950E94360B0E94520B0E94770B089504
:101CA0001F920F920FB60F9211242F933F934F93D1
:101CB0005F936F937F938F939F93AF93BF93EF93B4
:101CC000FF9381E080938B040E94050C982F8091F4
:101CD0008904882399F4E091AC04F0E0E757FB4FC6
:101CE00093838091AC048F5F8093AC048091AC04AB
:101CF000813210F01092AC040E94650BFF91EF91BD
:101D0000BF91AF919F918F917F916F915F914F9113
:101D10003F912F910F900FBE0F901F9018951F921B
:101D20000F920FB60F92112410926E0015BC16BCC4
:101D300010928B040F900FBE0F901F901895982F44
:101D40008A3010F4805D08958A50863010F080E06B
:101D50000895892F895C0895DF92EF92FF920F9387
:101D60001F93D82E7B01042F10E082958F700E9464
:101D70009F0EE00EF11EF70180838D2D8F700E9463
:101D80009F0EF70181831F910F91FF90EF90DF90DD
:101D90000895EF92FF920F931F93082F7B01142F4A
:101DA000892F0E94AC0E1E5F802FB701412F0E9429
:101DB000AC0E1F910F91FF90EF900895AF92BF92DC
:101DC000DF92EF92FF920F931F937B018C015A01D8
:101DD000D22EC801AA27BB27BA01422F0E94C90EE2
:101DE00084E0D80EC701B5014D2D0E94C90E1F9188
:101DF0000F91FF90EF90DF90BF90AF900895EF921A
:101E0000FF920F931F93FA017C0100271127E20F25
:101E1000F11DF082E182728363831F910F91FF9025
:101E2000EF900895982F80538A3068F08151863062
:101E300010F4865F0895892F8156863010F08FE068
:101E40000895892F87550895FF920F931F938C0152
:101E5000060F111DF80180810E94120FF82EF294D6
:101E600040EFF422F80181810E94120F8F291F9107
:101E70000F91FF900895CF92DF92FF920F931F93DF
:101E80006C01F62E0E94240F182F00E082E0F80E5D
:101E9000C6016F2D0E94240F282F30E0202B312BFC
:101EA000C9011F910F91FF90DF90CF900895A1E29B
:101EB0001A2EAA1BBB1BFD010DC0AA1FBB1FEE1FC4
:101EC000FF1FA217B307E407F50720F0A21BB30B0F
:101ED000E40BF50B661F771F881F991F1A9469F78B
:101EE00060957095809590959B01AC01BD01CF01E7
:061EF0000895F894FFCFF5
:101EF6004465627567205374617274656400526547
:101F060073657420536F75726365203A20005072B2
:101F16006F6772616D6D696E67204D6F64652045F0
:101F26006E61626C656400546172676574205374F7
:101F3600617465203A200046757365204C6F7720E2
:101F4600202020203A20004675736520486967687E
:101F5600202020203A20004675736520457874209D
:101F6600202020203A200046757365204C6F636B55
:101F7600202020203A200054617267657420537433
:101F8600617465203A2057726974696E67204675D8
:101F960073650054617267657420537461746520BB
:101FA6003A204C46555345205365742030784532C7
:101FB60000546172676574205374617465203A2019
:101FC6004C46555345205772697465204661696CC5
:101FD600656400546172676574205374617465208A
:101FE6003A2048465553452053657420307844308E
:101FF60000546172676574205374617465203A20D9
:102006004846555345205772697465204661696C88
:102016006564005461726765742053746174652049
:102026003A20436869702045726173696E6700548F
:102036006172676574205374617465203A20436841
:1020460069702045726173656400546172676574D6
:10205600205374617465203A2057726974696E67FB
:1020660020466C617368005461726765742053740E
:10207600617465203A20466C6173682057726974F2
:102086006520436F6D706C6574656400546172679A
:102096006574205374617465203A205665726966CA
:1020A60079696E6720466C61736800546172676572
:1020B60074205374617465203A20466C61736820FD
:1020C6005665726966696564005461726765742055
:1020D6005374617465203A20466C617368205665B6
:1020E60072696669636174696F6E204661696C65C1
:1020F6006400546172676574205374617465203A94
:10210600204C46555345205365742030784646008A
:10211600546172676574205374617465203A204C6B
:102126004249545320536574203078434600546125
:1021360072676574205374617465203A205772691A
:102146007465205375636365737366756C005461BB
:1021560072676574205374617465203A2045786906
:1021660074696E672050726F6772616D6D696E6714
:10217600204D6F6465005461726765742053746105
:102186007465203A204C424954532057726974654D
:10219600204661696C65640050726F6772616D6D8F
:1021A600696E67204D6F646520456E7465722046C2
:1021B60061696C656400000000000000000000001A
:1021C60000002C00CE049C044E024E023A02E600A9
:0621D600C800D200140055
:00000001FF
