:100000000C9434000C9446000C9446000C9446006A
:100010000C9446000C9446000C9497000C944600F7
:100020000C9446000C9446000C9446000C94460038
:100030000C9446000C9446000C9446000C94460028
:100040000C9446000C9446000C9446000C94460018
:100050000C9446000C9446000C9446000C94460008
:100060000C9446000C94460011241FBECFEFD8E03C
:10007000DEBFCDBF11E0A0E0B1E001C01D92A9300C
:10008000B107E1F70E9448000C94C5000C940000F1
:10009000549A5C988AB1837F8AB98BB18C608BB992
:1000A0000E9482000E9477006A30710581059105E7
:1000B00010F45C9AF7CF5C980E945F00F3CF83B78F
:1000C000816083BF85B7806685BF8F7D85BF78944B
:1000D000889583B78E7F83BF0895EAE7F0E080813B
:1000E0008F778083089580B78F7780BF08952091A0
:1000F0000501309106014091070150910801B901B5
:10010000CA010895F894E0E6F0E088E1808386E48F
:100110008083789483B7817F846083BFEAE7F0E0CF
:1001200080818F77808380B78F7780BF08951F92FB
:100130000F920FB60F9211248F939F93AF93BF939B
:10014000EF93FF93E0E6F0E080818064808380910C
:10015000050190910601A0910701B0910801019657
:10016000A11DB11D8093050190930601A093070185
:10017000B0930801FF91EF91BF91AF919F918F9143
:0E0180000F900FBE0F901F901895F894FFCFB0
:00000001FF
