:100000000C9434000C9451000C9451000C94510049
:100010000C94EB030C9451000C9451000C9451007F
:100020000C9451000C9451000C9451000C9451000C
:100030000C9451000C9451000C9451000C945100FC
:100040000C942A040C9451000C9451000C9451000F
:100050000C9451000C9451000C9451000C945100DC
:100060000C9451000C94510011241FBECFEFD8E026
:10007000DEBFCDBF11E0A0E0B1E0EEE9F4E102C0E7
:1000800005900D92A233B107D9F711E0A2E3B1E0D8
:1000900001C01D92AB3CB107E1F70E9453000C94E4
:1000A0004D0A0C940000EF92FF920F931F93CF9391
:1000B000DF930E94E4030E94E409EE24FF248701F9
:1000C000C0E6DAEEC801B7010E94D1070894E11C2E
:1000D000F11C011D111D0E94D108813019F480E02E
:1000E00091E009C0823019F488E091E004C08330C7
:1000F00021F480E191E00E945D02CE010197F1F7C9
:10010000E1CF109232011092330181E080933401EB
:1001100080E090E0FC01EE5CFE4F1382019680329D
:100120009105C1F710925501E6E5F1E0119281E0E9
:10013000EE35F807D9F71082089514BC15BC10925B
:100140006E008FEF85BBE8E6F0E0808182608083FF
:10015000ECE6F0E0808180648083D99A78940895F9
:100160008FEF85BBEEE6F0E0108288EC86BD84E080
:1001700085BD81E085BB8083089510926E0015BC1B
:1001800016BC0895559A5D9A3E98469A08955D9AD0
:1001900008955D980895813011F45D9A08955D98F1
:1001A000089586B190E026E0969587952A95E1F727
:1001B000817008959C0116BC81E085BD86B58233AF
:1001C000E8F316BC86B590E082179307D8F315BC08
:1001D000089580912A0190912B010E94DA000895E0
:1001E00080912C0190912D010E94DA000895809158
:1001F0002E0190912F010E94DA000895DF92EF9274
:10020000FF920F931F93DF93CF93CDB7DEB72A975B
:100210000FB6F894DEBF0FBECDBFFE0131969AE057
:10022000DF011D929A95E9F791E09A87FE013296D7
:1002300020E030E0482F50E061E0CA01022E02C009
:10024000959587950A94E2F780FF02C0608301C00C
:1002500010822F5F3F4F31962830310571F7DFB69E
:10026000F8948E010F5F1F4F3BE0E32EF12CEC0E54
:10027000FD1EF8018081813011F45D9A01C05D9806
:100280000E94E9000F5F1F4F0E151F0591F7DFBE9B
:100290002A960FB6F894DEBF0FBECDBFCF91DF9187
:1002A0001F910F91FF90EF90DF900895FF920F93B1
:1002B0001F93369B21C082E017C00E94F000369940
:1002C0000068173009F006951F5F1830B1F70E94DB
:1002D000F00086B1F6FC07C086FF05C0009333012D
:1002E0001092320103C081E080933201809133018A
:1002F0001F910F91FF9008950E94F700F6B000E063
:1003000010E0DBCF809133010895109233010895FE
:10031000809333010895BF92CF92DF92EF92FF92C4
:100320000F931F93CF93DF937B018C018FEFE81620
:10033000F1040105110509F030F4C8E0D0E062E0F5
:10034000C62ED12C14C080E0E81680E0F80681E0CB
:10035000080780E0180730F0C0E2D0E058E0C52E72
:10036000D12C05C0C0E1D0E044E0C42ED12C80E304
:100370000E94FE0088E70E94FE00BB2417C024975D
:10038000D801C7010C2E04C0B695A79597958795FF
:100390000A94D2F790E08F7090708A30910510F037
:1003A000C79601C0C0960E94FE00B3948B2D90E0CA
:1003B0008C159D0520F3DF91CF911F910F91FF9038
:1003C000EF90DF90CF90BF900895AF92BF92CF9201
:1003D000DF92EF92FF920F931F93CF93DF937B01F6
:1003E0008C016F3F71058105910509F018F4F7E064
:1003F000DF2E0DC0603030E0730731E0830730E05E
:10040000930718F0EFE1DE2E02C07FE0D72E80E3E5
:100410000E94FE0082E60E94FE00C0E0D0E0CD2CEB
:10042000DD2456010894A11CB11CC6018C1B9D0B38
:10043000A801970104C056954795379527958A9549
:10044000D2F7DA01C90181709070892B11F081E334
:1004500001C080E30E94FE002196CA15DB0529F742
:10046000DF91CF911F910F91FF90EF90DF90CF9090
:10047000BF90AF9008958DE00E94FE008AE00E9438
:10048000FE00089580E20E94FE0008958CE20E9422
:10049000FE0008951F93CF93DF93EC0110E003C09B
:1004A0000E94FE001F5FFE01E10FF11D8081882385
:1004B000B9F7DF91CF911F9108950E944A020E94DF
:1004C0003B0208950E944A020E94420208950E943F
:1004D0004A020E9446020895BF92CF92DF92EF92A5
:1004E000FF920F931F936B017C01611571058105CC
:1004F000910531F41092560181E080935E0123C092
:10050000BB240B2D10E00E5C1E4FC701B6012AE084
:1005100030E040E050E00E94100AF80164A3C701F7
:10052000B6012AE030E040E050E00E94100AC90124
:10053000DA016C017D01B394C114D104E104F1042A
:1005400001F7B0925E011F910F91FF90EF90DF9045
:10055000CF90BF9008951F9310915E0109C0115074
:10056000E12FF0E0EE5CFE4F84A1805D0E94FE0072
:100570001123A9F71F910895EF92FF920F931F93F4
:100580007B018C0197FF0BC08DE20E94FE0010954D
:100590000095F094E094E11CF11C011D111DC801AF
:1005A000B7010E946C020E94AB021F910F91FF9055
:1005B000EF9008950E94BC020E943B0208950E94A1
:1005C000BC020E94420208950E94BC028CE191E0AC
:1005D0000E944A0208950E948B010E943B020895E6
:1005E0000E948B010E94420208950E948B018CE1BF
:1005F00091E00E944A0208950E94E5010E943B0298
:1006000008950E94E5010E94420208950E94E501BA
:100610008CE191E00E944A020895EF92FF920F93BD
:100620001F937A018B010E944A020E944202C80174
:10063000B7010E94DA021F910F91FF90EF90089589
:10064000EF92FF920F931F937A018B010E944A024F
:100650000E944202C801B7010E94DF021F910F9160
:10066000FF90EF900895EF92FF920F931F937A01FE
:100670008B010E944A020E944202C801B7010E94F7
:10068000E4021F910F91FF90EF900895EF92FF9277
:100690000F931F937A018B010E944A020E9442022B
:1006A000C801B7010E94EB021F910F91FF90EF90DC
:1006B0000895EF92FF920F931F937A018B010E948E
:1006C0004A020E944202C801B7010E94F0021F9133
:1006D0000F91FF90EF900895EF92FF920F931F9369
:1006E0007A018B010E944A020E944202C801B701AE
:1006F0000E94F5021F910F91FF90EF900895EF92E5
:10070000FF920F931F937A018B010E944A020E946D
:100710004202C801B7010E94FC021F910F91FF9095
:10072000EF900895EF92FF920F931F937A018B0140
:100730000E944A020E944202C801B7010E940103BE
:100740001F910F91FF90EF900895EF92FF920F93FA
:100750001F937A018B010E944A020E944202C80143
:10076000B7010E9406031F910F91FF90EF9008952B
:10077000E2E3F1E0E80FF11D8381089580915501D6
:10078000089580E090E0FC01EE5CFE4F138201963C
:1007900080329105C1F7109255010895809134017E
:1007A000089580913401882311F090E008C0809171
:1007B000550190E0882309F491E081E09827892F82
:1007C00008958091550108950E9481000E949D0026
:1007D0000E94C20008951F920F920FB60F9211242B
:1007E0002F933F934F935F936F937F938F939F9339
:1007F000AF93BF93EF93FF9381E0809334010E9406
:100800005601982F80913201882399F4E091550187
:10081000F0E0EE5CFE4F9383809155018F5F8093F3
:10082000550180915501813210F0109255010E94BE
:10083000B000FF91EF91BF91AF919F918F917F9108
:100840006F915F914F913F912F910F900FBE0F903D
:100850001F9018951F920F920FB60F9211241092AD
:100860006E0015BC16BC109234010F900FBE0F9095
:100870001F90189510925F01109260011092630111
:1008800010926201109267011092660110926B0142
:1008900010926A0110926F0110926E018EE190E049
:1008A00090937301809372011092760110927801F7
:1008B00010927A0110927B0110927C0110927D01BE
:1008C000109282011092830110928401109285018E
:1008D00010929001109293011092610110926501A3
:1008E00010926401109269011092680110926D01DA
:1008F00010926C0110927101109270019093750129
:1009000080937401109277011092790110927E0108
:1009100010927F0110928001109281011092860145
:100920001092870110928801109289011092910112
:10093000109294011092920184E690E090938F01BE
:1009400080938E0182E390E090938D0180938C01DF
:1009500082E090E090938B0180938A010895E5E90D
:10096000F1E092E080E022E3208311821282138280
:1009700014821582168217821086891711F4982F17
:100980009D5F8F5F3996863079F7089590E0FC017E
:1009900023E0EE0FFF1F2A95E1F7E80FF91FEB5652
:1009A000FE4F6083089590E0FC0133E0EE0FFF1FDF
:1009B0003A95E1F7E80FF91FEB56FE4F8081089555
:1009C0006F927F928F929F92AF92BF92CF92DF925F
:1009D000EF92FF920F931F935A016B0190E04C012D
:1009E00073E0880C991C7A95E1F7880E991E85E9C9
:1009F00091E0880E991EF401208130E040E050E043
:100A000064E6E62EF12C012D112DE21AF30A040BF7
:100A1000150BC601B5010E94F1095B016C0145E0AF
:100A2000642E712C680C791CF40125813681478174
:100A30005085C801B7010E94F109A60EB71EC81E55
:100A4000D91EC601B50124E630E040E050E00E9426
:100A5000320ACA01F4012583F3013183428393836F
:100A6000B9011F910F91FF90EF90DF90CF90BF9051
:100A7000AF909F908F907F906F90089597B121E0F5
:100A800030E002C0220F331F8A95E2F72095292318
:100A900027B9089597B121E030E002C0220F331F3B
:100AA0008A95E2F72095922397B988B1282328B92F
:100AB000089597B121E030E002C0220F331F8A95DC
:100AC000E2F7922B97B9089598B121E030E002C087
:100AD000220F331F8A95E2F72095292328B908951C
:100AE00098B121E030E002C0220F331F8A95E2F76F
:100AF000922B98B9089580E480937C0087E88093D6
:100B00007A000895EAE7F0E08081806880830895A4
:100B1000EAE7F0E080818F77808308958064809396
:100B20007C0080917A00873819F087E880937A00FA
:100B300080917A00806480937A0080917A0084FFAB
:100B4000FCCF80917A00806180937A0020917800B8
:100B500030917900C901089527B1E0E3F1E0E80F91
:100B6000F11D81E090E0008002C0880F991F0A9477
:100B7000E2F7282B27B928B18095822388B986E02F
:100B80000E948E050895AF92BF92CF92DF92EF92AE
:100B9000FF920F931F93E82EFF24F0E3CF2EF1E096
:100BA000DF2ECE0CDF1CF60180810E944A05570122
:100BB000AA0CBB1C8501015A1E4FF8011086178232
:100BC000F60180810E948E05AC01F8019087878331
:100BD000662757FD6095762F8A2D8E0D0E94E004C2
:100BE000F801708767831F910F91FF90EF90DF905E
:100BF000CF90BF90AF90089527B1E0E3F1E0E80F08
:100C0000F11D81E090E0008002C0880F991F0A94D6
:100C1000E2F7282B27B928B1822B88B98FE00E94F0
:100C20008E050895AF92BF92CF92DF92EF92FF921E
:100C30000F931F93E82EFF2410E3A12E11E0B12E95
:100C4000AE0CBF1CF50180810E944A058701000F90
:100C5000111FAFE5CA2EA1E0DA2EC00ED11EF6019B
:100C600014861386F50180810E948E05AC01F60181
:100C7000948783870E0D1F1D662757FD6095762F7D
:100C8000802F8F5F0E94E004F601748763871F91B5
:100C90000F91FF90EF90DF90CF90BF90AF900895AD
:100CA000EF92FF920F931F93082F0E94AC05802FA5
:100CB0000E94C305802F0E94FC05802F0E9412060F
:100CC00010E0C801880F991F2FE5E22E21E0F22ED7
:100CD000E80EF91EF7014781508523853485421BB4
:100CE000530B508B4787800F911F662757FD6095E8
:100CF000762F8E5F0E94E004F701708B67871F914B
:100D00000F91FF90EF900895CF92DF92EF92FF92B4
:100D10000F931F93DF93CF93CDB7DEB728970FB60E
:100D2000F894DEBF0FBECDBF19821A821B821C82CF
:100D30001D821E821F821886CC24DD2480E00E9442
:100D4000500680916E0190916F01AA2797FDA095A2
:100D5000BA2F29813A814B815C81280F391F4A1FA4
:100D60005B1F29833A834B835C8381E00E9450069A
:100D70008091700190917101AA2797FDA095BA2FDB
:100D8000ED80FE800F811885E80EF91E0A1F1B1FDB
:100D9000ED82FE820F8318870894C11CD11C80E26B
:100DA000C816D10459F669817A818B819C8120E231
:100DB00030E040E050E00E94320AC9012091720107
:100DC00030917301821B930B9093630180936201B6
:100DD000C801B70120E230E040E050E00E94320A52
:100DE0008091740190917501281B390B3093650136
:100DF0002093640128960FB6F894DEBF0FBECDBFD6
:100E0000CF91DF911F910F91FF90EF90DF90CF90E6
:100E100008950F931F93082F0E94500610E0F801C9
:100E2000EE0FFF1FE15AFE4F2381348187859089A1
:100E3000F801E15AFE4F821793071CF481E0818389
:100E400001C011821F910F9108951F93182F0E94C6
:100E50000907A12FB0E0FD01E15AFE4F9181818D7C
:100E6000882329F4913071F411AA978B0FC0813037
:100E700049F4992311F484E003C0913019F482E01D
:100E8000878B04C0FD01E15AFE4F178AA15ABE4F5D
:100E900059969C931F910895CF92DF92EF92FF9203
:100EA0000F931F93182F042FF52EE62ED72E0E9496
:100EB0002507612F70E0FB01E15AFE4F17891130C1
:100EC00001F581E090E0062E02C0880F991F0A9478
:100ED000E2F720919201282B20939201FB01EE0F63
:100EE000FF1FEE0FFF1FE15AFE4FDF01939603A392
:100EF0001196FC9211971296EC9212971396DC922F
:100F000049C0143011F01230B1F5202F3F2D4E2D75
:100F10005D2DFB01EE0FFF1FEE0FFF1FE15AFE4F8D
:100F200083A194A1A5A1B6A169017A01C81AD90A21
:100F3000EA0AFB0AF7FC04C0C38ED48EE58EF68E57
:100F4000143041F5FB01EE0FFF1FEE0FFF1FE15ABA
:100F5000FE4F23A334A345A356A381E090E002C033
:100F6000880F991F6A95E2F780952091920182235C
:100F7000809392010FC0FB01EE0FFF1FEE0FFF1FCA
:100F8000E15AFE4F138E148E158E168E13A214A2E4
:100F900015A216A21F910F91FF90EF90DF90CF90B6
:100FA0000895CF92DF92EF92FF920F931F936B0100
:100FB0007C010AE710E0F80180818068808380E08E
:100FC0000E948E0580E0B701A6010E944C0781E0D7
:100FD000B701A6010E944C07F80180818F778083BA
:100FE0001F910F91FF90EF90DF90CF900895A82F61
:100FF000B0E0FD01E15AFE4F8789843029F5AA0F40
:10100000BB1FAA0FBB1FA15ABE4F5B962D913D91EE
:101010004D915C915E9780918A0190918B01A0E047
:10102000B0E0281739074A075B0774F060E0809149
:101030008C0190918D01A0E0B0E082179307A40786
:10104000B5071CF061E001C060E0862F0895682FAD
:1010500070E0FB01EE0FFF1FEE0FFF1FE15AFE4F86
:1010600080918E0190918F01A0E0B0E0238D348DAE
:10107000458D568D82179307A407B5074CF4FB01E5
:10108000E15AFE4F81A9882319F481E081AB0895CC
:1010900080E00895CF93DF93C82FD0E0FE01E15A9E
:1010A000FE4F8789823011F060E017C060E0CC0FFE
:1010B000DD1FCC0FDD1FC15ADE4F80918A01909158
:1010C0008B01A0E0B0E02B8D3C8D4D8D5E8D8217A5
:1010D0009307A407B5070CF461E0862FDF91CF9149
:1010E0000895CF93DF93782FEAE7F1E061E0C82F0E
:1010F000D0E09E01220F331F220F331FA9014E0F94
:101100005F1F0AC080819181A281B3810097A105F0
:10111000B10509F060E03496E417F50799F76130FE
:10112000D9F5C15ADE4F8F898430B1F5215A3E4F2F
:10113000F901238D348D458D568D80918A019091D2
:101140008B01A0E0B0E0281739074A075B0724F1BC
:1011500080918C0190918D01A0E0B0E082179307FF
:10116000A407B507CCF0272F2F5F31E012C0E22F84
:10117000F0E0EE0FFF1FEE0FFF1FE15AFE4F838DD1
:10118000948DA58DB68D0097A105B10509F030E0CD
:101190002F5F223060F301C030E0832FDF91CF91C9
:1011A0000895CF92DF92EF92FF920F931F93CF9308
:1011B000DF9360918E0170918F019B0140E050E0C0
:1011C00080917A0190917B01A0917C01B0917D0189
:1011D000281739074A075B0754F480919001882348
:1011E00031F481E08093900111E091E002C010E0C1
:1011F00090E0C0907E01D0907F01E0908001F0905F
:1012000081012C153D054E055F0554F48091910137
:10121000882331F481E080939101126001E003C0E2
:1012200000E0913089F576956795AB0160E070E05C
:10123000CAE7D1E020E030E01AC0F9018991999124
:10124000A991B9912F5F3F4F84179507A607B7075C
:1012500074F081E090E00E2E02C0880F991F0A946E
:10126000E2F7182BE15AFE4F81E081AB02C0201754
:1012700020F3002349F4C416D506E606F70624F049
:10128000126081E080939101812FDF91CF911F91B6
:101290000F91FF90EF90DF90CF90089580938A0197
:1012A00010928B01089580938C0110928D01089506
:1012B00080938E0110928F010895E82FF0E0EE0FD9
:1012C000FF1FE15AFE4F878190850895E82FF0E0D7
:1012D000EE0FFF1FE15AFE4F838594850895E82F96
:1012E000F0E0EE0FFF1FE15AFE4F878590890895C9
:1012F000E82FF0E0EE0FFF1FE15AFE4F838194814B
:101300000895E82FF0E0EE0FFF1FEE0FFF1FE15AE8
:10131000FE4FDF015B96638D11967C9111971296BB
:101320008C91129713969C910895EFE5F1E0E80FE8
:10133000F11D8181089580919201811181E00895CC
:10134000EFE5F1E0E80FF11D84A90895CF93DF9355
:10135000EB0128E030E039832883A82FB0E0BB837D
:10136000AA83FD01EE0FFF1FE15AFE4F8781908592
:101370009D838C83838594859F838E8387859089C5
:1013800099878887838194819B878A87FD01EE0FE7
:10139000FF1FEE0FFF1FE15AFE4F838D948D9D8737
:1013A0008C87A15ABE4F11968C918E871F8620E0A4
:1013B00030E080919201882311F021E030E0398BF8
:1013C000288BDF91CF9108950E943A040E94AF04C8
:1013D00080E480937C0087E880937A000E948406F2
:1013E0000895629FD001739FF001829FE00DF11D6F
:1013F000649FE00DF11D929FF00D839FF00D749F8F
:10140000F00D659FF00D9927729FB00DE11DF91F3A
:10141000639FB00DE11DF91FBD01CF011124089597
:10142000A1E21A2EAA1BBB1BFD010DC0AA1FBB1FE8
:10143000EE1FFF1FA217B307E407F50720F0A21B5A
:10144000B30BE40BF50B661F771F881F991F1A94C7
:1014500069F760957095809590959B01AC01BD01F1
:10146000CF01089597FB092E05260ED057FD04D015
:10147000D7DF0AD0001C38F450954095309521955F
:101480003F4F4F4F5F4F0895F6F7909580957095B9
:0E14900061957F4F8F4F9F4F0895F894FFCFC7
:10149E004C502042542030004C50204254203100F9
:1014AE004C50204254203120262030002C00CE04F7
:1014BE009C044E024E023A02E600C800D20014000E
:0214CE00040513
:00000001FF
