:100000000C9434000C9451000C9451000C94510049
:100010000C9451000C9451000C94DE000C9451008F
:100020000C9451000C9451000C9451000C9451000C
:100030000C9451000C9451000C9451000C945100FC
:100040000C9451000C9451000C9451000C945100EC
:100050000C9451000C9451000C9451000C945100DC
:100060000C9451000C94510011241FBECFEFD8E026
:10007000DEBFCDBF11E0A0E0B1E0E2E4FAE002C0F3
:1000800005900D92A434B107D9F711E0A4E4B1E0D2
:1000900001C01D92AF35B107E1F70E9453000C94E7
:1000A0001F050C940000DF92EF92FF920F931F93B5
:1000B000DF93CF93CDB7DEB7A0970FB6F894DEBF2E
:1000C0000FBECDBF549A5C988AB1837F8AB98BB139
:1000D0008C608BB90E9494030E94C90000E010E07C
:1000E0007E010894E11CF11C0E948803C7016AE0AC
:1000F0000E946E040E947C030F5F1F4F83E108384B
:10010000180791F78E010F5F1F4F92E1D92E8FE0F4
:10011000E82EF12CEC0EFD1ED801E0E0F1E08EE0BF
:1001200001900D928150E1F7F7018D2D11928A9582
:10013000E9F75C9A0E948803C8016DE00E946E0492
:100140000E947C035C980E94A600E6CF83B7816082
:1001500083BF85B7806685BF8F7D85BF789488957E
:1001600083B78E7F83BF0895EAE7F0E080818F77C1
:100170008083089580B78F7780BF089520914901CB
:1001800030914A0140914B0150914C01B901CA0193
:100190000895F894E0E6F0E088E1808386E48083C7
:1001A000789483B7817F846083BFEAE7F0E0808141
:1001B0008F77808380B78F7780BF08951F920F92CB
:1001C0000FB60F9211248F939F93AF93BF93EF932A
:1001D000FF93E0E6F0E080818064808380914901B4
:1001E00090914A01A0914B01B0914C010196A11D43
:1001F000B11D8093490190934A01A0934B01B093A4
:100200004C01FF91EF91BF91AF919F918F910F9012
:100210000FBE0F901F9018958DE491E090935E01B2
:1002200080935D0110924D0110924E0110924F018A
:100230001092500121E0209351018AE090E09093C8
:100240005301809352011092550110925401109263
:100250005601109258011092570110925A011092B3
:10026000590110925B0120935C010895289A08952A
:10027000289808955F9A08955F98089584B18C62D4
:1002800084B92498209A579A289A5F980895249AB6
:1002900085B1837C85B9289A5F98089580E58CBDE7
:1002A00081E08DBD08951CBC1DBC08950E943E01D7
:1002B00080E58CBD81E08DBD08951CBC1DBC0E94F5
:1002C000470108958EBD80E090E034E008C0232F00
:1002D0002A95F1F7019623E18938920719F00DB4B8
:1002E00007FEF5CF8EB50895362F20E02827392751
:1002F00040E061E270E1C901880F991F37FF04C037
:100300009C012627372701C09C014F5F483099F791
:10031000C90108950F931F93CF93DF93062FEC012C
:1003200020E030E010E006C0C90169910E9474012C
:100330009C011F5F1017C0F3C901DF91CF911F917E
:100340000F910895FF920F931F93CF93DF93142F74
:10035000052FF22E2898662381F480620E946201A4
:10036000812F902F9C01E90110E004C089910E9427
:1003700062011F5F1F15D0F30FC00E946201812F21
:10038000902F9C01E90110E005C08FEF0E946201EF
:1003900089931F5F1F15C8F3289ADF91CF911F9192
:1003A0000F91FF90089540915D0150915E014F5F64
:1003B0005F4F81EE60E020E00E94A2010895AC0151
:1003C00080EA60E020E20E94A2010895E0915D01D0
:1003D000F0915E011182319687E161E0AF0121E089
:1003E0000E94A201E0915D01F0915E01818190E0A7
:1003F00064E0969587956A95E1F781700895CF93AB
:10040000DF93CCE2D1E003C0CE010197F1F70E9467
:10041000E6018823C9F3DF91CF91089540915D01F2
:1004200050915E014F5F5F4F82EE60E020E00E94DE
:10043000A2010895AC0181E661E020E20E94A201E0
:100440000895E0915D01F0915E011182319687E19E
:1004500061E0AF0121E00E94A201E0915D01F09115
:100460005E01818180958170089540915D01509178
:100470005E014F5F5F4F80E061E021E00E94A201DA
:10048000E0915D01F0915E01818181FF07C080FFF5
:1004900002C081E001C082E080830895108280E084
:1004A0000895E0915D01F0915E011182319680E046
:1004B00060E0AF0121E00E94A201E0915D01F091B6
:1004C0005E0110820895E0915D01F0915E0182E786
:1004D00081835F98319680E060E0AF0121E00E9467
:1004E000A2010E94D301E0915D01F0915E0182E0E2
:1004F00080830895E0915D01F0915E0183E781833F
:100500005F9A319680E060E0AF0121E00E94A20195
:10051000E0915D01F0915E0181E080830895FF929A
:100520000F931F93F82E062F142F40915D015091C9
:100530005E014F5F5F4F61E021E00E94A201E09108
:100540005D01F0915E01112351F081E090E002C065
:10055000880F991F0A95E2F72181282B0AC081E0B4
:1005600090E002C0880F991F0A95E2F780952181DB
:100570002823218340915D0150915E014F5F5F4FC1
:100580008F2D60E021E00E94A2011F910F91FF904A
:10059000089540915D0150915E014F5F5F4F85E08E
:1005A00061E021E00E94A201E0915D01F0915E0115
:1005B00081810895E0915D01F0915E018E3708F030
:1005C0008DE78183319685E060E0AF0121E00E94F4
:1005D000A201089540915D0150915E014F5F5F4F10
:1005E00086E061E021E00E94A201E0915D01F091CE
:1005F0005E019181969596959695892F8695827044
:1006000081839170892B8283823011F4118206C01C
:10061000813019F0882311F482E08183818108956B
:10062000882321F486E065E041E005C0813049F48B
:1006300086E065E040E00E948F0286E063E040E0F3
:1006400008C086E065E040E00E948F0286E063E03B
:1006500041E00E948F02089540915D0150915E013A
:100660004F5F5F4F86E061E021E00E94A201E091D0
:100670005D01F0915E01818186958370818308958B
:10068000882321F486E062E040E00BC0813021F451
:1006900086E062E040E00EC0823049F486E062E02D
:1006A00041E00E948F0286E061E040E008C086E001
:1006B00062E041E00E948F0286E061E041E00E943A
:1006C0008F020895E0915D01F0915E0183830895AA
:1006D000E0915D01F0915E0184830895E0915D01F8
:1006E000F0915E01968385830895E0915D01F0911C
:1006F0005E01938782870895E0915D01F0915E012C
:100700008081882321F00E9451020E945D0108959A
:10071000E0915D01F0915E018081882321F40E94C7
:1007200056010E947A0208950F931F930E940C01B4
:100730000E945601E0915D01F0915E0111823196B7
:1007400080E060E0AF0121E00E94A201E0915D0144
:10075000F0915E011182319681E060E0AF0121E00D
:100760000E94A201E0915D01F0915E0183E081832E
:10077000319682E060E0AF0121E00E94A201E091A9
:100780005D01F0915E0181E08183319683E060E05C
:10079000AF0121E00E94A201E0915D01F0915E01B4
:1007A0001182319684E060E0AF0121E00E94A20155
:1007B000E0915D01F0915E0182E08183319685E0F8
:1007C00060E0AF0121E00E94A201E0915D01F091A3
:1007D0005E0186E28183319686E060E0AF0121E030
:1007E0000E94A201E0915D01F0915E0180E78183AA
:1007F000319687E060E0AF0121E00E94A201E09124
:100800005D01F0915E0110E21183319681E160E0BB
:10081000AF0121E00E94A201E0915D01F0915E0133
:100820001183319682E160E0AF0121E00E94A201D4
:10083000E0915D01F0915E01118231968CE160E002
:10084000AF0121E00E94A201E0915D01F0915E0103
:10085000118231968DE160E0AF0121E00E94A2019A
:1008600000E211E080E160E0A80125E00E94A20121
:100870008AE060E0A80125E00E94A2018BE060E030
:1008800046E251E025E00E94A2018CE060E04CE2EB
:1008900051E025E00E94A2018DE060E042E351E0DA
:1008A00025E00E94A2018EE060E048E351E025E0EF
:1008B0000E94A2018FE060E04EE351E025E00E943B
:1008C000A201E0915D01F0915E0180E290E09683EB
:1008D00085830E9451021F910F910895FF920F93FB
:1008E0001F938C01F62E0E946302E0915D01F0914E
:1008F0005E018381F801838FE0915D01F0915E01DB
:100900008481F801848FF58EC8016EE10E948A010E
:10091000F801968F878FC8010E94DF015F9A0E94BD
:10092000FF015F981F910F91FF900895CF92DF9282
:10093000EF92FF920F931F93CF93DF937C01E0918F
:100940005D01F0915E01108617820E947A027CE2BE
:10095000C72E71E0D72E23C00E942102882399F070
:10096000C7010E941A02F701D68DC0E0078D10E082
:100970000C2B1D2BC7016EE10E948A010817190775
:1009800011F481E018C0C6010197F1F7E0915D0113
:10099000F0915E0187819085019690878783E09131
:1009A0005D01F0915E012781308585819681281750
:1009B000390790F280E0DF91CF911F910F91FF9066
:1009C000EF90DF90CF900895CF93DF93EC01E0910B
:1009D0005D01F0915E018785882319F081E08A8F9F
:1009E00001C01A8ECE010E946E04CE010E949604B0
:1009F000811181E0DF91CF910895CF93DF93EC01D6
:100A00000E9496048823B9F08A8D8130A1F4E09188
:100A10005D01F0915E0193818C8D981761F48CEDEE
:100A200095E00197F1F78B8D8483CE0162E00E94FF
:100A30006E0481E001C080E0DF91CF910895F894C9
:020A4000FFCFE6
:100A420042656C6C6F20776F726C640D0A00000057
:100A52000000000000000000000000000000000094
:100A620041434B30300050495045310050495045C8
:100A720032005049504533005049504534005049E6
:040A820050453500A6
:00000001FF
