:100000000C9434000C9451000C9451000C94510049
:100010000C9451000C9451000C94DE000C9451008F
:100020000C9451000C9451000C9451000C9451000C
:100030000C9451000C9451000C9451000C945100FC
:100040000C9451000C9451000C9451000C945100EC
:100050000C9451000C9451000C9451000C945100DC
:100060000C9451000C94510011241FBECFEFD8E026
:10007000DEBFCDBF11E0A0E0B1E0E6EDFBE002C0E5
:1000800005900D92A434B107D9F711E0A4E4B1E0D2
:1000900001C01D92A236B107E1F70E9453000C94F3
:1000A000E9050C940000DF92EF92FF920F931F93EB
:1000B000DF93CF93CDB7DEB7A0970FB6F894DEBF2E
:1000C0000FBECDBF549A5C988AB1837F8AB98BB139
:1000D0008C608BB90E9454040E94C90000E010E0BB
:1000E0007E010894E11CF11C0E944804C7016AE0EB
:1000F0000E942E050E943C040F5F1F4F83E10838C9
:10010000180791F78E010F5F1F4F92E1D92E8FE0F4
:10011000E82EF12CEC0EFD1ED801E0E0F1E08EE0BF
:1001200001900D928150E1F7F7018D2D11928A9582
:10013000E9F75C9A0E944804C8016DE00E942E0510
:100140000E943C045C980E94A600E6CF83B78160C1
:1001500083BF85B7806685BF8F7D85BF789488957E
:1001600083B78E7F83BF0895EAE7F0E080818F77C1
:100170008083089580B78F7780BF089520914901CB
:1001800030914A0140914B0150914C01B901CA0193
:100190000895F894E0E6F0E088E1808386E48083C7
:1001A000789483B7817F846083BFEAE7F0E0808141
:1001B0008F77808380B78F7780BF08951F920F92CB
:1001C0000FB60F9211248F939F93AF93BF93EF932A
:1001D000FF93E0E6F0E080818064808380914901B4
:1001E00090914A01A0914B01B0914C010196A11D43
:1001F000B11D8093490190934A01A0934B01B093A4
:100200004C01FF91EF91BF91AF919F918F910F9012
:100210000FBE0F901F9018958DE491E090936101AF
:100220008093600110924D0110924E0110924F0187
:100230001092500121E0209351018AE090E09093C8
:100240005301809352011092550110925401109263
:100250005601109258011092570110925A011092B3
:10026000590110925B0120935C0110925E01109283
:100270005D0110925F010895289A089528980895C5
:100280005F9A08955F98089584B18C6284B9249828
:10029000209A579A289A5F980895249A85B1837C6A
:1002A00085B9289A5F98089580E58CBD81E08DBD61
:1002B00008951CBC1DBC08950E94440180E58CBDBE
:1002C00081E08DBD08951CBC1DBC0E944D010895A8
:1002D000E0916001F0916101118A108A128A0895FB
:1002E000E0916001F09161018289089590E0E091D0
:1002F0006001F09161018289882309F491E0892FDE
:10030000089584E08A95F1F7E0916001F091610130
:10031000808991890196918B808B895E934020F032
:10032000118A108A80E1828B82890895982FE0914A
:100330006001F091610182898823A9F49EBD118A30
:10034000108A128A04C00E948101882319F40DB416
:1003500007FEF9CFE0916001F09161018289882365
:1003600011F48EB5089580E00895362F20E02827F7
:10037000392740E061E270E1C901880F991F37FF1A
:1003800004C09C012627372701C09C014F5F4830DD
:1003900099F7C90108950F931F93CF93DF93062F09
:1003A000EC0120E030E010E006C0C90169910E9434
:1003B000B5019C011F5F1017C0F3C901DF91CF91F8
:1003C0001F910F910895FF920F931F93CF93DF9387
:1003D000982F142F052FF22EE0916001F09161010A
:1003E0008289882329F52898662389F4892F8062D9
:1003F0000E949601812F902F9C01E90110E004C01A
:1004000089910E9496011F5F1F15D0F310C0892F9C
:100410000E949601812F902F9C01E90110E005C0F8
:100420008FEF0E94960189931F5F1F15C8F3289ACA
:10043000DF91CF911F910F91FF900895E09160019E
:10044000F09161018289882339F4319681EE60E070
:10045000AF0120E00E94E3010895AC01E09160014A
:10046000F09161018289882329F480EA60E020E22A
:100470000E94E3010895E0916001F0916101828999
:10048000882311F080E008951182319687E161E0C0
:10049000AF0121E00E94E301E0916001F091610170
:1004A000818190E064E0969587956A95E1F7817087
:1004B0000895CF93DF93E0916001F091610182890B
:1004C000882329F00AC0CE010197F1F702C0CCE2DF
:1004D000D1E00E943B028823B1F3DF91CF910895D0
:1004E000E0916001F09161018289882339F43196AD
:1004F00082EE60E0AF0120E00E94E3010895AC01CC
:10050000E0916001F09161018289882329F481E6FC
:1005100061E020E20E94E3010895E0916001F09122
:1005200061018289882311F080E00895118231965B
:1005300087E161E0AF0121E00E94E301E091600109
:10054000F09161018181809581700895E091600151
:10055000F09161018289882311F080E0089531963D
:1005600080E061E0AF0121E00E94E301E0916001E1
:10057000F0916101818181FF07C080FF02C081E0AD
:1005800001C082E080830895108280E00895E091A8
:100590006001F09161018289882361F411823196B2
:1005A00060E0AF0121E00E94E301E0916001F09181
:1005B000610110820895E0916001F09161018289EA
:1005C000882391F482E781835F98319680E060E030
:1005D000AF0121E00E94E3010E941E02E091600150
:1005E000F091610182E080830895E0916001F091D3
:1005F00061018289882381F483E781835F9A319640
:1006000080E060E0AF0121E00E94E301E091600141
:10061000F091610181E080830895FF920F931F9311
:10062000F82E162F042FE0916001F091610182896C
:10063000882369F531968F2D61E0AF0121E00E949A
:10064000E301E0916001F0916101002351F081E04C
:1006500090E002C0880F991F1A95E2F72181282B9C
:100660000AC081E090E002C0880F991F1A95E2F756
:10067000809521812823218340916001509161015F
:100680004F5F5F4F8F2D60E021E00E94E3011F91DB
:100690000F91FF900895E0916001F09161018289CE
:1006A000882311F080E00895319685E061E0AF0184
:1006B00021E00E94E301E0916001F09161018181FC
:1006C0000895982FE0916001F0916101828988235B
:1006D00061F4892F9E3708F08DE78183319685E09C
:1006E00060E0AF0121E00E94E3010895E091600124
:1006F000F09161018289882311F080E0089531969C
:1007000086E061E0AF0121E00E94E301E091600139
:10071000F09161019181969596959695892F869590
:10072000827081839170892B8283823011F41182CF
:1007300006C0813019F0882311F482E08183818121
:100740000895982FE0916001F091610182898823DA
:1007500041F5992321F486E065E041E005C0913040
:1007600049F486E065E040E00E940D0386E063E026
:1007700040E00AC0923059F486E065E040E00E9413
:100780000D0386E063E041E00E940D03089586E0DA
:1007900065E040E00E940D0386E063E041E00E94D6
:1007A0000D030895E0916001F09161018289882331
:1007B00011F080E00895319686E061E0AF0121E01C
:1007C0000E94E301E0916001F091610181818695D1
:1007D000837081830895982FE0916001F091610109
:1007E0008289882371F5992321F486E062E040E054
:1007F0000BC0913021F486E062E040E010C09230FE
:1008000049F486E062E041E00E940D0386E061E089
:1008100040E00AC0933059F486E062E041E00E9473
:100820000D0386E061E041E00E940D03089586E03B
:1008300062E041E00E940D0386E061E041E00E9439
:100840000D030895E0916001F091610183830895A3
:10085000E0916001F091610184830895E09160016D
:10086000F0916101968385830895E0916001F09194
:100870006101938782870895E0916001F0916101A1
:100880008081882321F00E94C7020E94630108959D
:10089000E0916001F09161018081882321F40E9440
:1008A0005C010E94F50208950F931F930E940C01B2
:1008B0000E945C01E0916001F0916101118231962A
:1008C00080E060E0AF0121E00E94E301E09160017F
:1008D000F09161011182319681E060E0AF0121E089
:1008E0000E94E301E0916001F091610183E0818366
:1008F000319682E060E0AF0121E00E94E301E091E7
:100900006001F091610181E08183319683E060E0D4
:10091000AF0121E00E94E301E0916001F0916101EB
:100920001182319684E060E0AF0121E00E94E30192
:10093000E0916001F091610182E08183319685E070
:1009400060E0AF0121E00E94E301E0916001F091DD
:10095000610186E28183319686E060E0AF0121E0AB
:100960000E94E301E0916001F091610180E78183E1
:10097000319687E060E0AF0121E00E94E301E09161
:100980006001F091610110E21183319681E160E034
:10099000AF0121E00E94E301E0916001F09161016B
:1009A0001183319682E160E0AF0121E00E94E30112
:1009B000E0916001F0916101118231968CE160E07B
:1009C000AF0121E00E94E301E0916001F09161013B
:1009D000118231968DE160E0AF0121E00E94E301D8
:1009E00000E211E080E160E0A80125E00E94E3015F
:1009F0008AE060E0A80125E00E94E3018BE060E06E
:100A000046E251E025E00E94E3018CE060E04CE228
:100A100051E025E00E94E3018DE060E042E351E017
:100A200025E00E94E3018EE060E048E351E025E02C
:100A30000E94E3018FE060E04EE351E025E00E9478
:100A4000E301E0916001F091610180E290E0968322
:100A500085830E94C7021F910F910895FF920F9303
:100A60001F938C01F62EE0916001F0916101118AD3
:100A7000108A128A0E94DB02E0916001F09161010C
:100A80008381F801838FE0916001F091610184819D
:100A9000F801848FF58EC8016EE10E94CB01F80148
:100AA000968F878FC8010E942D025F9A0E9459027B
:100AB0005F981F910F91FF900895CF92DF92EF9270
:100AC000FF920F931F93CF93DF937C01E09160011E
:100AD000F0916101118A108A128A108617820E9491
:100AE000F5027CE2C72E71E0D72E23C00E948D0252
:100AF000882399F0C7010E947F02F701D68DC0E0DC
:100B0000078D10E00C2B1D2BC7016EE10E94CB015D
:100B10000817190711F481E018C0C6010197F1F711
:100B2000E0916001F0916101878190850196908745
:100B30008783E0916001F091610127813085858193
:100B400096812817390790F280E0DF91CF911F91AD
:100B50000F91FF90EF90DF90CF900895CF93DF93A8
:100B6000EC01E0916001F09161018785882319F023
:100B700081E08A8F01C01A8ECE010E942E05CE011F
:100B80000E945D05811181E0DF91CF910895CF939F
:100B9000DF93EC010E945D058823B9F08A8D8130D6
:100BA000A1F4E0916001F091610193818C8D98171F
:100BB00061F48CED95E00197F1F78B8D8483CE0184
:100BC00062E00E942E0581E001C080E0DF91CF91BC
:060BD0000895F894FFCF28
:100BD60042656C6C6F20776F726C640D0A000000C2
:100BE60000000000000000000000000000000000FF
:100BF60041434B3030005049504531005049504533
:100C06003200504950453300504950453400504950
:040C16005045350010
:00000001FF
