:100000000C9434000C9451000C9451000C94510049
:100010000C9451000C9451000C94BB000C945100B2
:100020000C9451000C9451000C9451000C9451000C
:100030000C9451000C9451000C9451000C945100FC
:100040000C9451000C9451000C9451000C945100EC
:100050000C9451000C9451000C9451000C945100DC
:100060000C9451000C94510011241FBECFEFD8E026
:10007000DEBFCDBF11E0A0E0B1E0ECEFF9E002C0DF
:1000800005900D92A432B107D9F711E0A4E2B1E0D6
:1000900001C01D92AF33B107E1F70E9453000C94E9
:1000A000FC040C9400000F931F93DF93CF93CDB704
:1000B000DEB7A0970FB6F894DEBF0FBECDBF549A3F
:1000C0005C988AB1837F8AB98BB18C608BB90E94AE
:1000D00071030E94A6008E010F5F1F4F0E949B00BC
:1000E0006A3071058105910550F45C9A0E946503A0
:1000F000C8016AE00E944B040E945903EFCF5C984C
:100100000E948300EBCF83B7816083BF85B7806691
:1001100085BF8F7D85BF7894889583B78E7F83BF99
:100120000895EAE7F0E080818F778083089580B7B3
:100130008F7780BF08952091290130912A01409145
:100140002B0150912C01B901CA010895F894E0E601
:10015000F0E088E1808386E48083789483B7817FB0
:10016000846083BFEAE7F0E080818F77808380B787
:100170008F7780BF08951F920F920FB60F921124B0
:100180008F939F93AF93BF93EF93FF93E0E6F0E0DD
:100190008081806480838091290190912A01A091BF
:1001A0002B01B0912C010196A11DB11D8093290155
:1001B00090932A01A0932B01B0932C01FF91EF9112
:1001C000BF91AF919F918F910F900FBE0F901F9095
:1001D00018958DE291E090933E0180933D0110923D
:1001E0002D0110922E0110922F011092300121E06A
:1001F000209331018AE090E09093330180933201A3
:10020000109235011092340110923601109238018B
:100210001092370110923A011092390110923B016D
:1002200020933C010895289A0895289808955F9A8C
:1002300008955F98089584B18C6284B92498209AB7
:10024000579A289A5F980895249A85B1837C85B936
:10025000289A5F98089580E58CBD81E08DBD089552
:100260001CBC1DBC08950E941B0180E58CBD81E073
:100270008DBD08951CBC1DBC0E94240108958EBD37
:1002800080E090E034E008C0232F2A95F1F7019632
:1002900023E18938920719F00DB407FEF5CF8EB52A
:1002A0000895362F20E02827392740E061E270E1E9
:1002B000C901880F991F37FF04C09C0126273727E3
:1002C00001C09C014F5F483099F7C90108950F9311
:1002D0001F93CF93DF93062FEC0120E030E010E076
:1002E00006C0C90169910E9451019C011F5F10174E
:1002F000C0F3C901DF91CF911F910F910895FF9233
:100300000F931F93CF93DF93142F052FF22E28986E
:10031000662381F480620E943F01812F902F9C010F
:10032000E90110E004C089910E943F011F5F1F1581
:10033000D0F30FC00E943F01812F902F9C01E90153
:1003400010E005C08FEF0E943F0189931F5F1F15CA
:10035000C8F3289ADF91CF911F910F91FF900895D4
:1003600040913D0150913E014F5F5F4F81EE60E053
:1003700020E00E947F010895AC0180EA60E020E265
:100380000E947F010895E0913D01F0913E011182AC
:10039000319687E161E0AF0121E00E947F01E091A9
:1003A0003D01F0913E01818190E064E09695879552
:1003B0006A95E1F781700895CF93DF93CCE2D1E0A5
:1003C00003C0CE010197F1F70E94C3018823C9F34E
:1003D000DF91CF91089540913D0150913E014F5FD3
:1003E0005F4F82EE60E020E00E947F010895AC0143
:1003F00081E661E020E20E947F010895E0913D01E5
:10040000F0913E011182319687E161E0AF0121E078
:100410000E947F01E0913D01F0913E018181809534
:100420008170089540913D0150913E014F5F5F4FB3
:1004300080E061E021E00E947F01E0913D01F091C8
:100440003E01818181FF07C080FF02C081E001C0C1
:1004500082E080830895108280E00895E0913D015C
:10046000F0913E011182319680E060E0AF0121E021
:100470000E947F01E0913D01F0913E0110820895BC
:10048000E0913D01F0913E0182E781835F983196D2
:1004900080E060E0AF0121E00E947F010E94B00196
:1004A000E0913D01F0913E0182E080830895E0916A
:1004B0003D01F0913E0183E781835F9A319680E0B0
:1004C00060E0AF0121E00E947F01E0913D01F091E9
:1004D0003E0181E080830895FF920F931F93F82ED1
:1004E000062F142F40913D0150913E014F5F5F4F09
:1004F00061E021E00E947F01E0913D01F0913E0129
:10050000112351F081E090E002C0880F991F0A95F5
:10051000E2F72181282B0AC081E090E002C0880F19
:10052000991F0A95E2F78095218128232183409124
:100530003D0150913E014F5F5F4F8F2D60E021E004
:100540000E947F011F910F91FF90089540913D01FE
:1005500050913E014F5F5F4F85E061E021E00E94D6
:100560007F01E0913D01F0913E0181810895E0918C
:100570003D01F0913E018E3708F08DE78183319681
:1005800085E060E0AF0121E00E947F010895409185
:100590003D0150913E014F5F5F4F86E061E021E0F9
:1005A0000E947F01E0913D01F0913E01918196957D
:1005B00096959695892F8695827081839170892B67
:1005C0008283823011F4118206C0813019F08823B1
:1005D00011F482E0818381810895882321F486E0EB
:1005E00065E041E005C0813049F486E065E040E027
:1005F0000E946C0286E063E040E008C086E065E0AF
:1006000040E00E946C0286E063E041E00E946C02E0
:10061000089540913D0150913E014F5F5F4F86E04C
:1006200061E021E00E947F01E0913D01F0913E01F7
:1006300081818695837081830895882321F486E0E3
:1006400062E040E00BC0813021F486E062E040E0EF
:100650000EC0823049F486E062E041E00E946C0204
:1006600086E061E040E008C086E062E041E00E9490
:100670006C0286E061E041E00E946C020895E09126
:100680003D01F0913E0183830895E0913D01F09199
:100690003E0184830895E0913D01F0913E019683EF
:1006A00085830895E0913D01F0913E019387828713
:1006B0000895E0913D01F0913E018081882321F071
:1006C0000E942E020E943A010895E0913D01F091AE
:1006D0003E018081882321F40E9433010E94570249
:1006E00008950F931F930E94E9000E943301E09147
:1006F0003D01F0913E011182319680E060E0AF0152
:1007000021E00E947F01E0913D01F0913E011182C4
:10071000319681E060E0AF0121E00E947F01E0912D
:100720003D01F0913E0183E08183319682E060E0FB
:10073000AF0121E00E947F01E0913D01F0913E0177
:1007400081E08183319683E060E0AF0121E00E9487
:100750007F01E0913D01F0913E011182319684E0EC
:1007600060E0AF0121E00E947F01E0913D01F09146
:100770003E0182E08183319685E060E0AF0121E0B7
:100780000E947F01E0913D01F0913E0186E281836C
:10079000319686E060E0AF0121E00E947F01E091A8
:1007A0003D01F0913E0180E78183319687E060E072
:1007B000AF0121E00E947F01E0913D01F0913E01F7
:1007C00010E11183319681E160E0AF0121E00E94E8
:1007D0007F01E0913D01F0913E011183319682E16C
:1007E00060E0AF0121E00E947F01E0913D01F091C6
:1007F0003E01118231968CE160E0AF0121E00E9460
:100800007F01E0913D01F0913E01118231968DE131
:1008100060E0AF0121E00E947F0100E011E080E193
:1008200060E0A80125E00E947F018AE060E0A80165
:1008300025E00E947F018BE060E046E051E025E08A
:100840000E947F018CE060E04CE051E025E00E94D6
:100850007F018DE060E042E151E025E00E947F01F0
:100860008EE060E048E151E025E00E947F018FE0EA
:1008700060E04EE151E025E00E947F01E0913D0102
:10088000F0913E0180E290E0968385830E942E02E3
:100890001F910F910895FF920F931F938C01F62ED5
:1008A0000E944002E0913D01F0913E018381F801F8
:1008B0008387E0913D01F0913E018481F8018487B6
:1008C000F586C8016EE10E946701F8019687878767
:1008D000C8010E94BC015F9A0E94DC015F981F91D1
:1008E0000F91FF900895CF92DF92EF92FF920F93B6
:1008F0001F93CF93DF937C01E0913D01F0913E0186
:10090000108617820E9457027CE2C72E71E0D72E14
:1009100023C00E94FE01882399F0C7010E94F701BD
:10092000F701D685C0E0078510E00C2B1D2BC70111
:100930006EE00E9467010817190711F481E018C0E2
:10094000C6010197F1F7E0913D01F0913E018781E9
:100950009085019690878783E0913D01F0913E015B
:1009600027813085858196812817390790F280E0AC
:10097000DF91CF911F910F91FF90EF90DF90CF907B
:100980000895CF93DF93EC01E0913D01F0913E019A
:100990008785882319F081E08A8701C01A86CE01F5
:1009A0000E944B04CE010E947304811181E0DF910B
:1009B000CF910895CF93DF93EC010E9473048823B5
:1009C000B9F08A858130A1F4E0913D01F0913E01BA
:1009D00093818C85981761F48CED95E00197F1F780
:1009E0008B858483CE0162E00E944B0481E001C0CC
:0C09F00080E0DF91CF910895F894FFCFD4
:1009FC0041434B303000504950453100504950452F
:100A0C00320050495045330050495045340050494C
:040A1C00504535000C
:00000001FF
