:100000000C9434000C9451000C9451000C94510049
:100010000C9451000C9451000C94CA000C945100A3
:100020000C9451000C9451000C9451000C9451000C
:100030000C9451000C9451000C9451000C945100FC
:100040000C9451000C9451000C9451000C945100EC
:100050000C9451000C9451000C9451000C945100DC
:100060000C9451000C94510011241FBECFEFD8E026
:10007000DEBFCDBF11E0A0E0B1E0E2EEFCE002C0E7
:1000800005900D92A434B107D9F711E0A4E4B1E0D2
:1000900001C01D92A236B107E1F70E9453000C94F3
:1000A0006F060C940000DF92EF92FF920F931F9364
:1000B000DF93CF93CDB7DEB7A0970FB6F894DEBF2E
:1000C0000FBECDBF549A5C988AB1837F8AB98BB139
:1000D0008C608BB90E9440040E94B5008E010F5FB6
:1000E0001F4F92E1D92E8FE0E82EF12CEC0EFD1E71
:1000F000D801E0E0F1E08EE001900D928150E1F74F
:10010000F7018D2D11928A95E9F75C9A0E943404CB
:10011000C8016DE00E941A050E9428045C980E94A4
:100120009200E6CF83B7816083BF85B7806685BFC5
:100130008F7D85BF7894889583B78E7F83BF089520
:10014000EAE7F0E080818F778083089580B78F772A
:1001500080BF08952091490130914A0140914B019F
:1001600050914C01B901CA010895F894E0E6F0E01D
:1001700088E1808386E48083789483B7817F84607C
:1001800083BFEAE7F0E080818F77808380B78F7745
:1001900080BF08951F920F920FB60F9211248F9374
:1001A0009F93AF93BF93EF93FF93E0E6F0E08081DE
:1001B000806480838091490190914A01A0914B0114
:1001C000B0914C010196A11DB11D809349019093FE
:1001D0004A01A0934B01B0934C01FF91EF91BF9165
:1001E000AF919F918F910F900FBE0F901F90189518
:1001F0008DE491E0909361018093600110924D0134
:1002000010924E0110924F011092500121E0209364
:1002100051018AE090E09093530180935201109233
:1002200055011092540110925601109258011092EB
:10023000570110925A011092590110925B012093BC
:100240005C0110925E0110925D0110925F010895B1
:100250002A9A08952A980895409A089540980895F2
:1002600084B18C6284B92498229A389A2A9A409848
:100270000895249A85B1837C85B92A9A4098089577
:1002800080E58CBD81E08DBD08951CBC1DBC08952A
:100290000E94300180E58CBD81E08DBD08951CBCBD
:1002A0001DBC0E9439010895E0916001F091610147
:1002B000118A108A128A0895E0916001F09161011B
:1002C0008289089590E0E0916001F0916101828956
:1002D000882309F491E0892F089584E08A95F1F745
:1002E000E0916001F0916101808991890196918B83
:1002F000808B895E934020F0118A108A80E1828B86
:1003000082890895982FE0916001F09161018289BE
:100310008823A9F49EBD118A108A128A04C00E9403
:100320006D01882319F40DB407FEF9CFE091600147
:10033000F09161018289882311F48EB5089580E0DF
:100340000895362F20E02827392740E061E270E148
:10035000C901880F991F37FF04C09C012627372742
:1003600001C09C014F5F483099F7C90108950F9370
:100370001F93CF93DF93062FEC0120E030E010E0D5
:1003800006C0C90169910E94A1019C011F5F10175D
:10039000C0F3C901DF91CF911F910F910895FF9292
:1003A0000F931F93CF93DF93982F142F052FF22EC7
:1003B000E0916001F09161018289882329F52A98F2
:1003C000662389F4892F80620E948201812F902FF9
:1003D0009C01E90110E004C089910E9482011F5F25
:1003E0001F15D0F310C0892F0E948201812F902FFA
:1003F0009C01E90110E005C08FEF0E948201899302
:100400001F5F1F15C8F32A9ADF91CF911F910F919B
:10041000FF900895E0916001F09161018289882345
:1004200039F4319681EE60E0AF0120E00E94CF0107
:100430000895AC01E0916001F09161018289882307
:1004400029F480EA60E020E20E94CF010895E09163
:100450006001F09161018289882311F080E00895A4
:100460001182319687E161E0AF0121E00E94CF0166
:10047000E0916001F0916101818190E064E09695E6
:1004800087956A95E1F781700895CF93DF93E091A6
:100490006001F09161018289882329F00AC0CE01B0
:1004A0000197F1F702C0CCE2D1E00E942702882335
:1004B000B1F3DF91CF910895E0916001F091610176
:1004C0008289882339F4319682EE60E0AF0120E022
:1004D0000E94CF010895AC01E0916001F0916101AB
:1004E0008289882329F481E661E020E20E94CF011D
:1004F0000895E0916001F09161018289882311F0F3
:1005000080E008951182319687E161E0AF0121E03A
:100510000E94CF01E0916001F0916101818180959D
:1005200081700895E0916001F091610182898823D2
:1005300011F080E00895319680E061E0AF0121E0A4
:100540000E94CF01E0916001F0916101818181FF02
:1005500007C080FF02C081E001C082E0808308956F
:10056000108280E00895E0916001F091610182893C
:10057000882361F41182319660E0AF0121E00E948E
:10058000CF01E0916001F091610110820895E09146
:100590006001F09161018289882391F482E781836F
:1005A0004098319680E060E0AF0121E00E94CF01E9
:1005B0000E940A02E0916001F091610182E0808373
:1005C0000895E0916001F09161018289882381F4AE
:1005D00083E78183409A319680E060E0AF0121E0BB
:1005E0000E94CF01E0916001F091610181E0808380
:1005F0000895FF920F931F93F82E162F042FE0916A
:100600006001F09161018289882369F531968F2D0F
:1006100061E0AF0121E00E94CF01E0916001F09123
:100620006101002351F081E090E002C0880F991F22
:100630001A95E2F72181282B0AC081E090E002C0E0
:10064000880F991F1A95E2F780952181282321832D
:1006500040916001509161014F5F5F4F8F2D60E0CD
:1006600021E00E94CF011F910F91FF900895E0912A
:100670006001F09161018289882311F080E0089582
:10068000319685E061E0AF0121E00E94CF01E09169
:100690006001F091610181810895982FE0916001DE
:1006A000F09161018289882361F4892F9E3708F0D7
:1006B0008DE78183319685E060E0AF0121E00E9403
:1006C000CF010895E0916001F09161018289882352
:1006D00011F080E00895319686E061E0AF0121E0FD
:1006E0000E94CF01E0916001F091610191819695A6
:1006F00096959695892F8695827081839170892B26
:100700008283823011F4118206C0813019F088236F
:1007100011F482E0818381810895982FE091600136
:10072000F09161018289882341F5992321F486E0C3
:1007300065E041E005C0913049F486E065E040E0C5
:100740000E94F90286E063E040E00AC0923059F46A
:1007500086E065E040E00E94F90286E063E041E067
:100760000E94F902089586E065E040E00E94F902E7
:1007700086E063E041E00E94F9020895E0916001A3
:10078000F09161018289882311F080E0089531960B
:1007900086E061E0AF0121E00E94CF01E0916001BD
:1007A000F091610181818695837081830895982FEE
:1007B000E0916001F09161018289882371F59923AC
:1007C00021F486E062E040E00BC0913021F486E045
:1007D00062E040E010C0923049F486E062E041E01F
:1007E0000E94F90286E061E040E00AC0933059F4CB
:1007F00086E062E041E00E94F90286E061E041E0CB
:100800000E94F902089586E062E041E00E94F90248
:1008100086E061E041E00E94F9020895E091600104
:10082000F091610183830895E0916001F09161018D
:1008300084830895E0916001F0916101968385833E
:100840000895E0916001F091610193878287089596
:10085000E0916001F09161018081882321F00E9484
:10086000B3020E944F010895E0916001F09161018F
:100870008081882321F40E9448010E94E1020895AA
:100880000F931F930E94F8000E944801E0916001BD
:10089000F09161011182319680E060E0AF0121E0CA
:1008A0000E94CF01E0916001F091610111823196C7
:1008B00081E060E0AF0121E00E94CF01E0916001A2
:1008C000F091610183E08183319682E060E0AF01C5
:1008D00021E00E94CF01E0916001F091610181E08F
:1008E0008183319683E060E0AF0121E00E94CF0177
:1008F000E0916001F09161011182319684E060E045
:10090000AF0121E00E94CF01E0916001F09161010F
:1009100082E08183319685E060E0AF0121E00E94B2
:10092000CF01E0916001F091610186E2818331960F
:1009300086E060E0AF0121E00E94CF01E09160011C
:10094000F091610180E78183319687E060E0AF013B
:1009500021E00E94CF01E0916001F091610110E27D
:100960001183319681E160E0AF0121E00E94CF0167
:10097000E0916001F09161011183319682E160E0C4
:10098000AF0121E00E94CF01E0916001F09161018F
:10099000118231968CE160E0AF0121E00E94CF012D
:1009A000E0916001F0916101118231968DE160E08A
:1009B000AF0121E00E94CF0100E211E080E160E0A0
:1009C000A80125E00E94CF018AE060E0A80125E0AF
:1009D0000E94CF018BE060E046E251E025E00E94FA
:1009E000CF018CE060E04CE251E025E00E94CF01B5
:1009F0008DE060E042E351E025E00E94CF018EE00F
:100A000060E048E351E025E00E94CF018FE060E024
:100A10004EE351E025E00E94CF01E0916001F091AA
:100A2000610180E290E0968385830E94B3021F916A
:100A30000F910895FF920F931F938C01F62EE09172
:100A40006001F0916101118A108A128A0E94C70226
:100A5000E0916001F09161018381F801838FE09161
:100A60006001F09161018481F801848FF58EC801E5
:100A70006EE10E94B701F801968F878FC8010E942E
:100A80001902409A0E94450240981F910F91FF90D1
:100A90000895CF92DF92EF92FF920F931F93CF931F
:100AA000DF937C01E0916001F0916101118A108A6D
:100AB000128A108617820E94E1027CE2C72E71E042
:100AC000D72E23C00E947902882399F0C7010E9483
:100AD0006B02F701D68DC0E0078D10E00C2B1D2BAB
:100AE000C7016EE10E94B7010817190711F481E0F0
:100AF00018C0C6010197F1F7E0916001F091610122
:100B000087819085019690878783E0916001F091BD
:100B1000610127813085858196812817390790F2F8
:100B200080E0DF91CF911F910F91FF90EF90DF90C8
:100B3000CF900895CF93DF93EC01E0916001F091A5
:100B400061018785882319F081E08A8F01C01A8EA0
:100B5000CE010E941A05CE010E944905811181E053
:100B6000DF91CF910895CF93DF93EC010E94490567
:100B70008823B9F08A8D8130A1F4E0916001F09171
:100B8000610193818C8D981761F48CED95E001974C
:100B9000F1F78B8D8483CE0162E00E941A0581E01B
:100BA00001C080E0DF91CF910895ECE7F0E0808113
:100BB000806C80830895ECE7F0E080818F778083FC
:100BC0008081806480830895EAE7F0E08081806816
:100BD00080830895EAE7F0E080818F77808308952D
:100BE000EAE7F0E086E08083808180688083089572
:100BF00090917C00907C982B80917C00891711F05B
:100C000090937C0080917A00806480937A00809138
:100C10007A0084FFFCCF80917A00806180937A0013
:100C20002091780030917900C9010895599A08956A
:100C3000599808950F931F93599A0AE710E0F80105
:100C400080818068808386E00E94F80586E00E94AB
:100C5000F80586E00E94F805A0E0B0E0F8012081E8
:100C60002F7720835998BC01CD0120EC34E440E07B
:100C700050E00E9450069B01AC018AE056954795D2
:100C8000379527958A95D1F7C9011F910F9108953E
:100C9000399A5998ECE7F0E08081806C8083089560
:100CA000629FD001739FF001829FE00DF11D649F50
:100CB000E00DF11D929FF00D839FF00D749FF00DDC
:100CC000659FF00D9927729FB00DE11DF91F639F7D
:100CD000B00DE11DF91FBD01CF0111240895F89455
:020CE000FFCF44
:100CE20042656C6C6F20776F726C640D0A000000B5
:100CF20000000000000000000000000000000000F2
:100D020041434B3030005049504531005049504525
:100D12003200504950453300504950453400504943
:040D22005045350003
:00000001FF
