:100000000C9434000C9451000C9451000C94510049
:100010000C9451000C9451000C94DB000C94510092
:100020000C9451000C9451000C9451000C9451000C
:100030000C9451000C9451000C9451000C945100FC
:100040000C9451000C9451000C9451000C945100EC
:100050000C9451000C9451000C9451000C945100DC
:100060000C9451000C94510011241FBECFEFD8E026
:10007000DEBFCDBF11E0A0E0B1E0EEEDFFE002C0D9
:1000800005900D92A432B107D9F711E0A4E2B1E0D6
:1000900001C01D92A334B107E1F70E9453000C94F4
:1000A000ED070C940000CF92DF92EF92FF920F9336
:1000B0001F93DF93CF93CDB7DEB7A0970FB6F89419
:1000C000DEBF0FBECDBF549A5C988AB1837F8AB9D8
:1000D0008BB18C608BB90E9451040E94C6000E94B3
:1000E0007E068E010F5F1F4F2DE0C22E92E0E92E9B
:1000F000F12CEC0EFD1E8AE0D82E5C9A0E942E0692
:10010000A0E0B0E0BC01CD01A80120E00E94000702
:100110000E948E07F801E80FF11DC0820E948E0731
:10012000F701E80FF11DD0820E9445040E948E075E
:10013000682F6E5FC8010E942B050E9439045C98ED
:100140000E94A300DACF83B7816083BF85B7806642
:1001500085BF8F7D85BF7894889583B78E7F83BF59
:100160000895EAE7F0E080818F778083089580B773
:100170008F7780BF08952091290130912A01409105
:100180002B0150912C01B901CA010895F894E0E6C1
:10019000F0E088E1808386E48083789483B7817F70
:1001A000846083BFEAE7F0E080818F77808380B747
:1001B0008F7780BF08951F920F920FB60F92112470
:1001C0008F939F93AF93BF93EF93FF93E0E6F0E09D
:1001D0008081806480838091290190912A01A0917F
:1001E0002B01B0912C010196A11DB11D8093290115
:1001F00090932A01A0932B01B0932C01FF91EF91D2
:10020000BF91AF919F918F910F900FBE0F901F9054
:1002100018958EE291E090934201809341011092F3
:100220002E0110922F01109230011092310121E025
:10023000209332018AE090E090933401809333015F
:100240001092360110923501109237011092390147
:100250001092380110923B0110923A0110923C0129
:1002600020933D0110923F0110923E0110924001F7
:1002700008952A9A08952A980895409A08954098D2
:10028000089584B18C6284B92498229A389A2A9A63
:1002900040980895249A85B1837C85B92A9A40981C
:1002A000089580E58CBD81E08DBD08951CBC1DBC0A
:1002B00008950E94410180E58CBD81E08DBD0895C7
:1002C0001CBC1DBC0E944A010895E0914101F091BF
:1002D0004201118A108A128A0895E0914101F09139
:1002E00042018289089590E0E0914101F09142013C
:1002F0008289882309F491E0892F089584E08A9502
:10030000F1F7E0914101F0914201808991890196D4
:10031000918B808B895E934020F0118A108A80E156
:10032000828B82890895982FE0914101F0914201DA
:1003300082898823A9F49EBD118A108A128A04C07A
:100340000E947E01882319F40DB407FEF9CFE091D5
:100350004101F09142018289882311F48EB50895FC
:1003600080E00895362F20E02827392740E061E219
:1003700070E1C901880F991F37FF04C09C0126272F
:10038000372701C09C014F5F483099F7C901089594
:100390000F931F93CF93DF93062FEC0120E030E003
:1003A00010E006C0C90169910E94B2019C011F5F63
:1003B0001017C0F3C901DF91CF911F910F910895DC
:1003C000FF920F931F93CF93DF93982F142F052F36
:1003D000F22EE0914101F09142018289882329F5B2
:1003E0002A98662389F4892F80620E949301812FC5
:1003F000902F9C01E90110E004C089910E949301B3
:100400001F5F1F15D0F310C0892F0E949301812F09
:10041000902F9C01E90110E005C08FEF0E9493012D
:1004200089931F5F1F15C8F32A9ADF91CF911F91FF
:100430000F91FF900895E0914101F091420182896E
:10044000882339F4319681EE60E0AF0120E00E940C
:10045000E0010895AC01E0914101F09142018289EF
:10046000882329F480EA60E020E20E94E0010895F8
:10047000E0914101F09142018289882311F080E0EE
:1004800008951182319687E161E0AF0121E00E9479
:10049000E001E0914101F0914201818190E064E04E
:1004A000969587956A95E1F781700895CF93DF93CC
:1004B000E0914101F09142018289882329F00AC02C
:1004C000CE010197F1F702C0CCE2D1E00E943802E0
:1004D0008823B1F3DF91CF910895E0914101F0912C
:1004E00042018289882339F4319682EE60E0AF01BF
:1004F00020E00E94E0010895AC01E0914101F091FB
:1005000042018289882329F481E661E020E20E9489
:10051000E0010895E0914101F09142018289882330
:1005200011F080E008951182319687E161E0AF011A
:1005300021E00E94E001E0914101F09142018181BE
:10054000809581700895E0914101F0914201828986
:10055000882311F080E00895319680E061E0AF01DA
:1005600021E00E94E001E0914101F091420181818E
:1005700081FF07C080FF02C081E001C082E080836C
:100580000895108280E00895E0914101F0914201C8
:100590008289882361F41182319660E0AF0121E005
:1005A0000E94E001E0914101F09142011082089522
:1005B000E0914101F09142018289882391F482E720
:1005C00081834098319680E060E0AF0121E00E9495
:1005D000E0010E941B02E0914101F091420182E0A2
:1005E00080830895E0914101F0914201828988233E
:1005F00081F483E78183409A319680E060E0AF0127
:1006000021E00E94E001E0914101F091420181E08E
:1006100080830895FF920F931F93F82E162F042FB7
:10062000E0914101F09142018289882369F5319678
:100630008F2D61E0AF0121E00E94E001E0914101D6
:10064000F0914201002351F081E090E002C0880F58
:10065000991F1A95E2F72181282B0AC081E090E0CA
:1006600002C0880F991F1A95E2F7809521812823EF
:10067000218340914101509142014F5F5F4F8F2D87
:1006800060E021E00E94E0011F910F91FF9008952A
:10069000E0914101F09142018289882311F080E0CC
:1006A0000895319685E061E0AF0121E00E94E0010C
:1006B000E0914101F091420181810895982FE091EC
:1006C0004101F09142018289882361F4892F9E378C
:1006D00008F08DE78183319685E060E0AF0121E08D
:1006E0000E94E0010895E0914101F0914201828968
:1006F000882311F080E00895319686E061E0AF0133
:1007000021E00E94E001E0914101F09142019181DC
:10071000969596959695892F86958270818391708E
:10072000892B8283823011F4118206C0813019F046
:10073000882311F482E0818381810895982FE091CC
:100740004101F09142018289882341F5992321F4E6
:1007500086E065E041E005C0913049F486E065E05F
:1007600040E00E940A0386E063E040E00AC0923065
:1007700059F486E065E040E00E940A0386E063E009
:1007800041E00E940A03089586E065E040E00E948F
:100790000A0386E063E041E00E940A030895E091C5
:1007A0004101F09142018289882311F080E008958F
:1007B000319686E061E0AF0121E00E94E001E09126
:1007C0004101F09142018181869583708183089572
:1007D000982FE0914101F09142018289882371F5BF
:1007E000992321F486E062E040E00BC0913021F4CF
:1007F00086E062E040E010C0923049F486E062E0BA
:1008000041E00E940A0386E061E040E00AC09330C4
:1008100059F486E062E041E00E940A0386E061E06C
:1008200041E00E940A03089586E062E041E00E94F0
:100830000A0386E061E041E00E940A030895E09126
:100840004101F091420183830895E0914101F091CB
:10085000420184830895E0914101F0914201968321
:1008600085830895E0914101F09142019387828749
:100870000895E0914101F09142018081882321F0A7
:100880000E94C4020E9460010895E0914101F0912C
:1008900042018081882321F40E9459010E94F202C2
:1008A00008950F931F930E9409010E945901E0913E
:1008B0004101F09142011182319680E060E0AF0188
:1008C00021E00E94E001E0914101F091420111829A
:1008D000319681E060E0AF0121E00E94E001E0910B
:1008E0004101F091420183E08183319682E060E032
:1008F000AF0121E00E94E001E0914101F09142014D
:1009000081E08183319683E060E0AF0121E00E94C5
:10091000E001E0914101F09142011182319684E0C1
:1009200060E0AF0121E00E94E001E0914101F0911F
:10093000420182E08183319685E060E0AF0121E0F1
:100940000E94E001E0914101F091420186E2818341
:10095000319686E060E0AF0121E00E94E001E09185
:100960004101F091420180E78183319687E060E0A8
:10097000AF0121E00E94E001E0914101F0914201CC
:1009800010E21183319681E160E0AF0121E00E9425
:10099000E001E0914101F09142011183319682E141
:1009A00060E0AF0121E00E94E001E0914101F0919F
:1009B0004201118231968CE160E0AF0121E00E949A
:1009C000E001E0914101F0914201118231968DE107
:1009D00060E0AF0121E00E94E00100E011E080E171
:1009E00060E0A80125E00E94E0018AE060E0A80143
:1009F00025E00E94E0018BE060E046E051E025E068
:100A00000E94E0018CE060E04CE051E025E00E94B3
:100A1000E0018DE060E042E151E025E00E94E0016C
:100A20008EE060E048E151E025E00E94E0018FE0C7
:100A300060E04EE151E025E00E94E001E0914101DB
:100A4000F091420180E290E0968385830E94C40287
:100A50001F910F910895FF920F931F938C01F62E13
:100A6000E0914101F0914201118A108A128A0E949C
:100A7000D802E0914101F09142018381F801838F16
:100A8000E0914101F09142018481F801848FF58E5B
:100A9000C8016EE10E94C801F801968F878FC801D6
:100AA0000E942A02409A0E94560240981F910F917C
:100AB000FF900895CF92DF92EF92FF920F931F93D2
:100AC000CF93DF937C01E0914101F0914201118AC3
:100AD000108A128A108617820E94F2027CE2C72EC8
:100AE00071E0D72E23C00E948A02882399F0C701A3
:100AF0000E947C02F701D68DC0E0078D10E00C2B20
:100B00001D2BC7016EE10E94C8010817190711F4D7
:100B100081E018C0C6010197F1F7E0914101F09121
:100B2000420187819085019690878783E0914101FA
:100B3000F0914201278130858581968128173907F8
:100B400090F280E0DF91CF911F910F91FF90EF9095
:100B5000DF90CF900895CF93DF93EC01E0914101B6
:100B6000F09142018785882319F081E08A8F01C0C6
:100B70001A8ECE010E942B05CE010E945A058111CA
:100B800081E0DF91CF910895CF93DF93EC010E9434
:100B90005A058823B9F08A8D8130A1F4E091410192
:100BA000F091420193818C8D981761F48CED95E062
:100BB0000197F1F78B8D8483CE0162E00E942B05B3
:100BC00081E001C080E0DF91CF910895ECE7F0E093
:100BD0008081806C80830895ECE7F0E080818F77DE
:100BE00080838081806480830895EAE7F0E08081DB
:100BF000806880830895EAE7F0E080818F778083C2
:100C000080B7806880BF0895EAE7F0E086E08083DF
:100C1000808180688083089590917C00907C982BDF
:100C200080917C00891711F090937C0080917A006C
:100C3000806480937A0080917A0084FFFCCF809159
:100C40007A00806180937A00209178003091790059
:100C5000C9010895419A089541980895DF92EF924D
:100C6000FF920F931F93419A80917C00806C809338
:100C70007C0080917A00806880937A0010E086E0A2
:100C80000E940C061F5F1430D1F7DD24EE24FF24F0
:100C9000870186E00E940C06A0E0B0E0E80EF91E95
:100CA0000A1F1B1FD39488E0D81699F780917A0009
:100CB0008F7780937A0080B7806880BF419893E0F7
:100CC00016950795F794E7949A95D1F7C801B7015F
:100CD00020EC34E440E050E00E9491079B01AC011D
:100CE0008AE056954795379527958A95D1F7C9019A
:100CF0001F910F91FF90EF90DF900895399A4198DE
:100D0000ECE7F0E08081806C8083EAE7F0E086E049
:100D100080838081806880830895982F8A3010F4C2
:100D2000805D08958A50863010F080E00895892F04
:100D3000895C0895DF92EF92FF920F931F93D82E54
:100D40007B01042F10E082958F700E948D06E00ECB
:100D5000F11EF70180838D2D8F700E948D06F701A3
:100D600081831F910F91FF90EF90DF900895EF9294
:100D7000FF920F931F93082F7B01142F892F0E943E
:100D80009A061E5F802FB701412F0E949A061F917D
:100D90000F91FF90EF900895AF92BF92DF92EF9284
:100DA000FF920F931F937B018C015A01D22EC80131
:100DB000AA27BB27BA01422F0E94B70684E0D80EAB
:100DC000C701B5014D2D0E94B7061F910F91FF90ED
:100DD000EF90DF90BF90AF900895EF92FF920F9346
:100DE0001F93FA017C0100271127E20FF11DF08209
:100DF000E182728363831F910F91FF90EF900895BA
:100E00007F928F929F92AF92BF92CF92DF92EF929A
:100E1000FF920F931F93DF93CF93CDB7DEB72A973F
:100E20000FB6F894DEBF0FBECDBF6B017C015A0137
:100E3000722E97FF0FC0F094E094D094C094C11C20
:100E4000D11CE11CF11CFA01E20FF11D8DE280833F
:100E500011E006C0611571058105910539F010E0BA
:100E600000E04E010894811C911C04C0198231E0FD
:100E700010E023C0C401800F911D9A878987C701A4
:100E8000B6012AE030E040E050E00E94B007E9857A
:100E9000FA856083C701B6012AE030E040E050E007
:100EA0000E94B007C901DA016C017D010F5FC11416
:100EB000D104E104F104F1F6302F432F50E0912FDB
:100EC000DE011196672D70E00CC0FD01E40FF11DED
:100ED0008081F501E90FF11DE60FF71F805D80832A
:100EE0009F5F41505040FFEF4F3F5F0771F7130F77
:100EF00010932D012A960FB6F894DEBF0FBECDBF1A
:100F0000CF91DF911F910F91FF90EF90DF90CF90E5
:100F1000BF90AF909F908F907F90089580912D010A
:100F20000895629FD001739FF001829FE00DF11D33
:100F3000649FE00DF11D929FF00D839FF00D749F53
:100F4000F00D659FF00D9927729FB00DE11DF91FFF
:100F5000639FB00DE11DF91FBD01CF01112408955C
:100F600097FB092E05260ED057FD04D014D00AD0C9
:100F7000001C38F450954095309521953F4F4F4FC8
:100F80005F4F0895F6F790958095709561957F4F26
:100F90008F4F9F4F0895A1E21A2EAA1BBB1BFD0184
:100FA0000DC0AA1FBB1FEE1FFF1FA217B307E40748
:100FB000F50720F0A21BB30BE40BF50B661F771FA0
:100FC000881F991F1A9469F7609570958095909580
:0E0FD0009B01AC01BD01CF010895F894FFCF45
:100FDE0041434B3030005049504531005049504547
:100FEE003200504950453300504950453400504965
:040FFE005045350025
:00000001FF
