:100000000C9434000C9451000C9451000C94510049
:100010000C9451000C9451000C94DE000C9451008F
:100020000C9451000C9451000C9451000C9451000C
:100030000C9451000C9451000C9451000C945100FC
:100040000C9451000C9451000C9451000C945100EC
:100050000C9451000C9451000C9451000C945100DC
:100060000C9451000C94510011241FBECFEFD8E026
:10007000DEBFCDBF11E0A0E0B1E0E2E6F4E102C0F6
:1000800005900D92A630B107D9F711E0A6E0B1E0D6
:1000900001C01D92A833B107E1F70E9453000C94F0
:1000A0002F0A0C940000CF92DF92EF92FF920F93F1
:1000B0001F93DF93CF93CDB7DEB7A0970FB6F89419
:1000C000DEBF0FBECDBF549A5C988AB1837F8AB9D8
:1000D0008BB18C608BB90E9431060E94C9000E94CE
:1000E000FC070E94CC098E010F5F1F4F2DE0C22E2E
:1000F00092E0E92EF12CEC0EFD1E8AE0D82E0E9433
:10010000CF090E94FE06A0E0B0E0BC01CD01A8012D
:1001100020E00E9482080E941009F801E80FF11DFA
:10012000C0820E941009F701E80FF11DD0820E94E1
:100130001009682F6E5FC8010E94D10480E00E9400
:10014000BA030E94D1090E94A600D9CF83B781606B
:1001500083BF85B7806685BF8F7D85BF789488957E
:1001600083B78E7F83BF0895EAE7F0E080818F77C1
:100170008083089580B7806880BF0895209106012C
:10018000309107014091080150910901B901CA015C
:100190000895F894E0E6F0E088E1808386E48083C7
:1001A000789483B7817F846083BFEAE7F0E0808141
:1001B0008F77808380B7806880BF08951F920F92E9
:1001C0000FB60F9211248F939F93AF93BF93EF932A
:1001D000FF93E0E6F0E080818064808380910601F7
:1001E00090910701A0910801B09109010196A11D0C
:1001F000B11D8093060190930701A0930801B0936D
:100200000901FF91EF91BF91AF919F918F910F9055
:100210000FBE0F901F90189510920D0191E09093D2
:100220000E0110920F01109210019093110182E0C3
:100230008093120110921601109215012AE030E00D
:10024000309314012093130184E1809317013093BC
:1002500019012093180110921B0110921A0190931A
:100260001C0110921D0110921E0190931F0110920B
:100270002001109221018FE1809323018EE1809370
:100280002201809329018DE1809324018CE18093E8
:1002900025018BE1809326018AE18093270189E182
:1002A0008093280188E180932A0110922C011092FA
:1002B0002B0110922D0110922E010895882311F028
:1002C000259A089525980895882311F0249A089571
:1002D00024980895882311F0239A08952398089567
:1002E000882311F0229A089522980895882311F006
:1002F000389A089538980895882311F02D9A089512
:100300002D980895882311F02C9A08952C9808951B
:10031000882311F02B9A08952B980895882311F0C3
:100320002A9A08952A980895882311F0409A0895EA
:1003300040980895259A2498239A229A389A2A9ABE
:100340004098229A0895259A249A239A229A389AB4
:100350002D982C982B982A9A4098089580E58CBD6A
:1003600081E08DBD1DBC08951CBC1DBC08950E947C
:100370009A0180E58CBD81E08DBD1DBC80930E018E
:1003800008951CBC1DBC0E94A30110920E0108958B
:1003900010922D01089510922C0110922B010895B6
:1003A000EEE2F1E0119281E0E833F807D9F7089521
:1003B00010922D0110922C0110922B01EEE2F1E02F
:1003C000119281E0E833F807D9F7089580932D0161
:1003D000089580912D010895EDE0F1E0E80FF11D01
:1003E00081A10895ECE2F1E03197F1F720912B0122
:1003F00030912C012F5F3F4F30932C0120932B0124
:1004000040E08217930708F441E0842F089590E0BC
:1004100080912D01882309F491E0892F0895362FCA
:1004200020E02827392740E061E270E1C901880F08
:10043000991F37FF04C09C012627372701C09C0164
:100440004F5F483099F7C90108950F931F93CF93D9
:10045000DF93062FEC0120E030E010E006C0C90178
:1004600069910E940F029C011F5F1017C0F3C90120
:10047000DF91CF911F910F910895982F80912D01B9
:10048000882369F49EBD90E028E20BC0822F8A95F4
:10049000F1F79F5F993C29F481E080932D0180E082
:1004A00008950DB407FEF2CF8EB50895DF92EF9256
:1004B000FF920F931F93CF93DF93182F062FF42EE5
:1004C000E52ED22E80912D01882359F580910E01C1
:1004D000882311F40E94B7012A98002389F4812F00
:1004E00080620E943D028F2D9E2D9C01E90110E04B
:1004F00004C089910E943D021F5F1D15D0F310C0FA
:10050000812F0E943D028F2D9E2D9C01E90110E05C
:1005100005C08FEF0E943D0289931F5F1D15C8F330
:100520002A9ADF91CF911F910F91FF90EF90DF906A
:100530000895FF920F931F93F82E062F142F80918A
:100540002D01882341F58F2D61E04FE051E021E03E
:100550000E94560220910F01112359F081E090E092
:1005600002C0880F991F0A95E2F7282B20930F01EC
:100570000BC081E090E002C0880F991F0A95E2F756
:100580008095822380930F018F2D60E04FE051E032
:1005900021E00E9456021F910F91FF90089581EE75
:1005A00060E04FE051E020E00E94560280912D0172
:1005B000882319F082E080932D01089582EE60E097
:1005C0004FE051E020E00E94560280912D018823E7
:1005D00019F083E080932D010895AC0180EA60E07A
:1005E00020E20E94560280912D01882319F084E0B8
:1005F00080932D010895AC0181E661E020E20E9424
:10060000560280912D01882319F085E080932D01F9
:10061000089580912D01882311F080E008951092B3
:100620000F0187E161E04FE051E021E00E945602B6
:1006300080910F0190E064E0969587956A95E1F7C7
:100640008170089580912D01882311F080E0089534
:1006500010920F0187E161E04FE051E021E00E943C
:10066000560280910F01809581700895CF93DF939A
:1006700080912D018823C9F410922C0110922B0136
:10068000CCE2D1E014C0CE010197F1F780912B01AB
:1006900090912C01019690932C0180932B0185362B
:1006A000910528F086E080932D0180E005C00E942E
:1006B0000903882341F381E0DF91CF910895809170
:1006C0002D01882351F410920F0160E04FE051E0BA
:1006D00021E00E94560210920D010E94C10108956E
:1006E00080910E01882311F40E94B70180912D01A1
:1006F000882361F410920F01409860E04FE051E0D0
:1007000021E00E94560281E080930D0108958091BE
:100710000E01882311F40E94B70180912D018823D6
:1007200071F483E780930F01409A80E060E04FE02E
:1007300051E021E00E94560282E080930D0108956D
:1007400080910E01882311F40E94B70180912D0140
:10075000882379F482E780930F01409880E060E07D
:100760004FE051E021E00E945602409A83E08093DE
:100770000D010895982F80912D018823B1F49923BC
:1007800019F40E945F030895913019F40E947003D8
:100790000895923019F40E9487030895933019F454
:1007A0000E94A00308950E948703089580912D015F
:1007B000882311F080E0089580E061E04FE051E08F
:1007C00021E00E94560280910F0181FF08C080FF46
:1007D00002C082E001C083E080930D01089581E0B2
:1007E00080930D010895982F80912D01882369F43D
:1007F000892F993708F088E780930F0185E060E042
:100800004FE051E021E00E945602089580912D01B1
:10081000882311F080E0089585E061E04FE051E029
:1008200021E00E94560280910F010895882321F44F
:1008300086E065E041E005C0813049F486E065E08E
:1008400040E00E94990286E063E040E008C086E054
:1008500065E040E00E94990286E063E041E00E948A
:100860009902089580912D01882311F080E0089568
:1008700086E061E04FE051E021E00E945602909155
:100880000F01892F8295827080930F01969596951E
:1008900096959170982B90931001923019F41092C4
:1008A0000F010AC0913019F490930F0105C09923EC
:1008B00019F482E080930F0180910F010895982F21
:1008C00080912D01882371F5992321F486E062E05F
:1008D00040E00BC0913021F486E062E040E010C0BF
:1008E000923049F486E062E041E00E94990286E09D
:1008F00061E040E00AC0933059F486E062E041E0F4
:100900000E94990286E061E041E00E949902089508
:1009100086E062E041E00E94990286E061E041E009
:100920000E949902089580912D01882311F080E0A2
:10093000089586E061E04FE051E021E00E94560218
:1009400080910F018695837080930F0108958093A5
:100950001101089580911101089580931201089565
:1009600080911201089590931601809315010895C6
:100970008091150190911601089590931401809330
:10098000130108958091130190911401089590939B
:10099000190180931801089580911801909119010F
:1009A0000895FF920F931F938C01F62E10922D0144
:1009B0000E94CF0280912A01F801E80FF11D809179
:1009C0002001808380912801F801E80FF11D8091BA
:1009D0001C01808380912701F801E80FF11D8091AF
:1009E0001F01808380912601F801E80FF11D80919D
:1009F0001101808380912501F801E80FF11D80919C
:100A00001201808380912401F801E80FF11DF0822A
:100A1000C801609129010E94250220912201F8015C
:100A2000E20FF11D908390912301F801E90FF11D70
:100A30008083C8010E94ED0283E00E94BA030E94F5
:100A400036031F910F91FF900895CF92DF92EF929E
:100A5000FF920F931F93CF93DF93EC0110922D0120
:100A600010921601109215017CE2C72E71E0D72E6C
:100A70003CC00E942203882361F1CE010E94FB0248
:100A800080912201FE01E80FF11DF080EE2480919B
:100A90002301FE01E80FF11D008110E00E291F293E
:100AA000CE01609129010E94250208171907E9F477
:100AB00080912801FE01E80FF11D808180931D01C6
:100AC00080912A01C80FD11D88818093200181E087
:100AD00019C0C6010197F1F7809115019091160197
:100AE0000196909316018093150120911501309184
:100AF000160180911301909114012817390708F409
:100B0000B8CF80E0DF91CF911F910F91FF90EF90D0
:100B1000DF90CF900895EF92FF920F931F93DF9392
:100B2000CF93CDB7DEB7A0970FB6F894DEBF0FBE58
:100B3000CDBFE0901301F090140125E030E0309338
:100B40001401209313010E94D10480911F01882376
:100B5000A1F08E010F5F1F4FC8010E942505882359
:100B600061F080912501080F111D90911101F8018C
:100B70008081981711F481E001C080E0F0921401A7
:100B8000E0921301A0960FB6F894DEBF0FBECDBF62
:100B9000CF91DF911F910F91FF90EF9008950F93E8
:100BA0001F93DF93CF93CDB7DEB7A0970FB6F8941E
:100BB000DEBF0FBECDBF8C018EE79EE5AEE7B0E095
:100BC00089839A83AB83BC83FE0135968CE1DF0178
:100BD0001D928A95E9F7C8010E9425058823A9F18D
:100BE00080912701F801E80FF11D808180FF2DC061
:100BF00080912501F801E80FF11D9091110180818C
:100C0000981719F58CED95E00197F1F78091260181
:100C1000F801E80FF11D8081809312018091280175
:100C2000F801E80FF11D808180931C0180912A0159
:100C3000080F111DF801808180932001CE010196DB
:100C400063E00E94D10481E001C080E0A0960FB66D
:100C5000F894DEBF0FBECDBFCF91DF911F910F91F2
:100C60000895FF920F931F930E940C010E94B701F9
:100C70000FE011E010920F0180E060E0A80121E098
:100C80000E94560210920F0181E060E0A80121E06D
:100C90000E94560283E080930F0182E060E0A80189
:100CA00021E00E94560281E080930F0183E060E022
:100CB000A80121E00E94560210920F0184E060E03A
:100CC000A80121E00E94560282E080930F0185E096
:100CD00060E0A80121E00E94560286E280930F01A5
:100CE00086E060E0A80121E00E94560280E7809340
:100CF0000F0187E060E0A80121E00E945602E0E2D7
:100D0000FE2EF0920F0181E160E0A80121E00E9437
:100D10005602F0920F0182E160E0A80121E00E94FA
:100D2000560210920F018CE160E0A80121E00E94C0
:100D3000560210920F018DE160E0A80121E00E94AF
:100D4000560200E011E080E160E0A80125E00E9489
:100D500056028AE060E0A80125E00E94560282E087
:100D60000E94BA031F910F91FF900895ECE7F0E005
:100D70008081806C80830895ECE7F0E080818F773C
:100D800080838081806480830895EAE7F0E0808139
:100D9000806880830895EAE7F0E080818F77808320
:100DA00080B7806880BF0895EAE7F0E086E080833E
:100DB000808180688083089590917C00907C982B3E
:100DC00080917C00891711F090937C0080917A00CB
:100DD000806480937A0080917A0084FFFCCF8091B8
:100DE0007A00806180937A002091780030917900B8
:100DF000C9010895419A0895419808954F925F92CC
:100E00006F927F928F929F92AF92BF92CF92DF921A
:100E1000EF92FF920F931F93419AECE7F0E08081ED
:100E2000806C80834AE7442E512CF20180818068D7
:100E3000808386E00E94DC0686E00E94DC0686E075
:100E40000E94DC063C0186E00E94DC067C0186E014
:100E50000E94DC065C01CC24DD2400E010E0AE0C36
:100E6000BF1CC01ED11E88249924A60CB71CC81C08
:100E7000D91C86E00E94DC06A0E0B0E0A80EB91EF6
:100E8000CA1EDB1EF20180818F77808380B7806865
:100E900080BF419832E0D694C794B794A7943A950E
:100EA000D1F760910A0170910B0180E090E024E09D
:100EB000660F771F881F991F2A95D1F7A601950104
:100EC0000E94D3099B01AC018AE05695479537955E
:100ED00027958A95D1F7C9011F910F91FF90EF9047
:100EE000DF90CF90BF90AF909F908F907F906F904A
:100EF0005F904F900895DF92EF92FF920F931F93B0
:100F000080917C008F7780937C0080917C0080644E
:100F100080937C00419A80917A00806880937A0067
:100F200010E08EE00E94DC061F5F1031D1F7EE2446
:100F3000FF248701DD248EE00E94DC06A0E0B0E003
:100F4000E80EF91E0A1F1B1FD39480E2D81699F7EA
:100F500080917A008F7780937A0080B7806880BF15
:100F6000419875E016950795F794E7947A95D1F72F
:100F7000C801B70124EE3CE040E050E00E94D309F4
:100F80009B01AC016AE056954795379527956A9580
:100F9000D1F7C9011F910F91FF90EF90DF90089555
:100FA00080910A0190910B0108958CEF93E00E94CB
:100FB0005F096450734082409140A9F08AEF93E04A
:100FC0006BEF73E00E949E090E947B07BC018AEFD1
:100FD00093E00E944E098CEF93E044E053E062E01E
:100FE00071E00E9482098AEF93E00E9437098093A2
:100FF0000A0190930B010895399A4198ECE7F0E0CB
:101000008081806C8083EAE7F0E086E080838081E5
:10101000806880830E94D5070E94FE060895982F5D
:101020008A3010F4805D08958A50863010F080E098
:101030000895892F895C0895DF92EF92FF920F93B4
:101040001F93D82E7B01042F10E082958F700E9491
:101050000F08E00EF11EF70180838D2D8F700E9426
:101060000F08F70181831F910F91FF90EF90DF90A0
:101070000895EF92FF920F931F93082F7B01142F77
:10108000892F0E941C081E5F802FB701412F0E94EC
:101090001C081F910F91FF90EF900895AF92BF929F
:1010A000DF92EF92FF920F931F937B018C015A0105
:1010B000D22EC801AA27BB27BA01422F0E943908A5
:1010C00084E0D80EC701B5014D2D0E9439081F914B
:1010D0000F91FF90EF90DF90BF90AF900895EF9247
:1010E000FF920F931F93FA017C0100271127E20F53
:1010F000F11DF082E182728363831F910F91FF9053
:10110000EF9008957F928F929F92AF92BF92CF926D
:10111000DF92EF92FF920F931F93DF93CF93CDB7A0
:10112000DEB72A970FB6F894DEBF0FBECDBF6B01B6
:101130007C015A01722E97FF0FC0F094E094D09476
:10114000C094C11CD11CE11CF11CFA01E20FF11D7D
:101150008DE2808311E006C061157105810591055E
:1011600039F010E000E04E010894811C911C04C08D
:10117000198231E010E023C0C401800F911D9A87CD
:101180008987C701B6012AE030E040E050E00E94C4
:10119000F209E985FA856083C701B6012AE030E0EB
:1011A00040E050E00E94F209C901DA016C017D01C2
:1011B0000F5FC114D104E104F104F1F6302F432F85
:1011C00050E0912FDE011196672D70E00CC0FD01FB
:1011D000E40FF11D8081F501E90FF11DE60FF71F06
:1011E000805D80839F5F41505040FFEF4F3F5F071E
:1011F00071F7130F10930C012A960FB6F894DEBF07
:101200000FBECDBFCF91DF911F910F91FF90EF9057
:10121000DF90CF90BF90AF909F908F907F90089578
:1012200080910C010895F89492BD81BDF89AF999C6
:10123000FECF789480B508951F93CF93DF93EC0190
:10124000162F0E941309811751F0F894D2BDC1BD29
:1012500010BD84E08FBBF99AF999FECF7894DF91A5
:10126000CF911F9108956FEF0E941C090895EF928E
:10127000FF920F931F937C010E941309182F00E027
:10128000C70101960E941309282F30E0202B312B33
:10129000C9011F910F91FF90EF900895FF920F9356
:1012A0001F938C01F62E672F0E941C09C80101961E
:1012B0006F2D0E941C091F910F91FF900895CF92EE
:1012C000DF92EF92FF920F931F936C010E943709F8
:1012D0007C0100E010E08701FF24EE24C6010296A5
:1012E0000E9437099C0140E050E02E293F29402B05
:1012F000512BB901CA011F910F91FF90EF90DF9020
:10130000CF900895CF92DF92EF92FF920F931F93A9
:101310006C017A018B019B0144275527C601B90155
:101320000E944E09C6010296B7010E944E091F9104
:101330000F91FF90EF90DF90CF9008950F931F9340
:10134000CF93DF938B01EC0104C0CE010E943309DF
:1013500021960C171D07C8F7DF91CF911F910F91B0
:1013600008958CEF93E00E945F09645073408240BF
:10137000914071F08AEF93E06BEF73E00E949E0959
:101380008CEF93E044E053E062E071E00E94820958
:1013900008950E94B1090895549A5C9808955C9A42
:1013A00008955C980895629FD001739FF001829F19
:1013B000E00DF11D649FE00DF11D929FF00D839FE4
:1013C000F00D749FF00D659FF00D9927729FB00D81
:1013D000E11DF91F639FB00DE11DF91FBD01CF0194
:1013E0001124089597FB092E05260ED057FD04D031
:1013F00014D00AD0001C38F45095409530952195B2
:101400003F4F4F4F5F4F0895F6F790958095709539
:1014100061957F4F8F4F9F4F0895A1E21A2EAA1B0F
:10142000BB1BFD010DC0AA1FBB1FEE1FFF1FA21794
:10143000B307E407F50720F0A21BB30BE40BF50B91
:10144000661F771F881F991F1A9469F7609570951A
:10145000809590959B01AC01BD01CF010895F89452
:02146000FFCFBC
:0614620041434B30300055
:00000001FF
